{"abi":[{"inputs":[{"internalType":"uint256","name":"_minimumContribution","type":"uint256"},{"internalType":"address","name":"_creator","type":"address"}],"stateMutability":"nonpayable","type":"constructor"},{"inputs":[{"internalType":"uint256","name":"index","type":"uint256"}],"name":"approveRequest","outputs":[],"stateMutability":"nonpayable","type":"function"},{"inputs":[{"internalType":"address","name":"","type":"address"}],"name":"approvers","outputs":[{"internalType":"bool","name":"","type":"bool"}],"stateMutability":"view","type":"function"},{"inputs":[],"name":"contribute","outputs":[],"stateMutability":"payable","type":"function"},{"inputs":[{"internalType":"string","name":"_description","type":"string"},{"internalType":"uint256","name":"_value","type":"uint256"},{"internalType":"address payable","name":"_recipient","type":"address"}],"name":"createRequest","outputs":[],"stateMutability":"nonpayable","type":"function"},{"inputs":[{"internalType":"uint256","name":"index","type":"uint256"}],"name":"finalizeRequest","outputs":[],"stateMutability":"payable","type":"function"},{"inputs":[],"name":"manager","outputs":[{"internalType":"address","name":"","type":"address"}],"stateMutability":"view","type":"function"},{"inputs":[],"name":"minimumContribution","outputs":[{"internalType":"uint256","name":"","type":"uint256"}],"stateMutability":"view","type":"function"},{"inputs":[],"name":"numApprovers","outputs":[{"internalType":"uint256","name":"","type":"uint256"}],"stateMutability":"view","type":"function"},{"inputs":[],"name":"numRequests","outputs":[{"internalType":"uint256","name":"","type":"uint256"}],"stateMutability":"view","type":"function"},{"inputs":[{"internalType":"uint256","name":"","type":"uint256"}],"name":"requests","outputs":[{"internalType":"string","name":"description","type":"string"},{"internalType":"uint256","name":"value","type":"uint256"},{"internalType":"address payable","name":"recipient","type":"address"},{"internalType":"bool","name":"complete","type":"bool"},{"internalType":"uint256","name":"approvalCount","type":"uint256"}],"stateMutability":"view","type":"function"}],"devdoc":{"kind":"dev","methods":{},"version":1},"evm":{"assembly":"    /* \"Campaign.sol\":470:2587  contract Campaign {... */\n  mstore(0x40, 0x80)\n    /* \"Campaign.sol\":1072:1218  constructor(uint _minimumContribution,address _creator) {... */\n  callvalue\n  dup1\n  iszero\n  tag_1\n  jumpi\n  0x00\n  dup1\n  revert\ntag_1:\n  pop\n  mload(0x40)\n  sub(codesize, bytecodeSize)\n  dup1\n  bytecodeSize\n  dup4\n  codecopy\n  dup2\n  dup2\n  add\n  0x40\n  mstore\n  dup2\n  add\n  swap1\n  tag_2\n  swap2\n  swap1\n  tag_3\n  jump\t// in\ntag_2:\n    /* \"Campaign.sol\":1161:1181  _minimumContribution */\n  dup2\n    /* \"Campaign.sol\":1139:1158  minimumContribution */\n  0x03\n    /* \"Campaign.sol\":1139:1181  minimumContribution = _minimumContribution */\n  dup2\n  swap1\n  sstore\n  pop\n    /* \"Campaign.sol\":1202:1210  _creator */\n  dup1\n    /* \"Campaign.sol\":1192:1199  manager */\n  0x00\n  dup1\n    /* \"Campaign.sol\":1192:1210  manager = _creator */\n  0x0100\n  exp\n  dup2\n  sload\n  dup2\n  0xffffffffffffffffffffffffffffffffffffffff\n  mul\n  not\n  and\n  swap1\n  dup4\n  0xffffffffffffffffffffffffffffffffffffffff\n  and\n  mul\n  or\n  swap1\n  sstore\n  pop\n    /* \"Campaign.sol\":1072:1218  constructor(uint _minimumContribution,address _creator) {... */\n  pop\n  pop\n    /* \"Campaign.sol\":470:2587  contract Campaign {... */\n  jump(tag_6)\n    /* \"#utility.yul\":88:205   */\ntag_8:\n    /* \"#utility.yul\":197:198   */\n  0x00\n    /* \"#utility.yul\":194:195   */\n  dup1\n    /* \"#utility.yul\":187:199   */\n  revert\n    /* \"#utility.yul\":334:411   */\ntag_10:\n    /* \"#utility.yul\":371:378   */\n  0x00\n    /* \"#utility.yul\":400:405   */\n  dup2\n    /* \"#utility.yul\":389:405   */\n  swap1\n  pop\n    /* \"#utility.yul\":334:411   */\n  swap2\n  swap1\n  pop\n  jump\t// out\n    /* \"#utility.yul\":417:539   */\ntag_11:\n    /* \"#utility.yul\":490:514   */\n  tag_23\n    /* \"#utility.yul\":508:513   */\n  dup2\n    /* \"#utility.yul\":490:514   */\n  tag_10\n  jump\t// in\ntag_23:\n    /* \"#utility.yul\":483:488   */\n  dup2\n    /* \"#utility.yul\":480:515   */\n  eq\n    /* \"#utility.yul\":470:533   */\n  tag_24\n  jumpi\n    /* \"#utility.yul\":529:530   */\n  0x00\n    /* \"#utility.yul\":526:527   */\n  dup1\n    /* \"#utility.yul\":519:531   */\n  revert\n    /* \"#utility.yul\":470:533   */\ntag_24:\n    /* \"#utility.yul\":417:539   */\n  pop\n  jump\t// out\n    /* \"#utility.yul\":545:688   */\ntag_12:\n    /* \"#utility.yul\":602:607   */\n  0x00\n    /* \"#utility.yul\":633:639   */\n  dup2\n    /* \"#utility.yul\":627:640   */\n  mload\n    /* \"#utility.yul\":618:640   */\n  swap1\n  pop\n    /* \"#utility.yul\":649:682   */\n  tag_26\n    /* \"#utility.yul\":676:681   */\n  dup2\n    /* \"#utility.yul\":649:682   */\n  tag_11\n  jump\t// in\ntag_26:\n    /* \"#utility.yul\":545:688   */\n  swap3\n  swap2\n  pop\n  pop\n  jump\t// out\n    /* \"#utility.yul\":694:820   */\ntag_13:\n    /* \"#utility.yul\":731:738   */\n  0x00\n    /* \"#utility.yul\":771:813   */\n  0xffffffffffffffffffffffffffffffffffffffff\n    /* \"#utility.yul\":764:769   */\n  dup3\n    /* \"#utility.yul\":760:814   */\n  and\n    /* \"#utility.yul\":749:814   */\n  swap1\n  pop\n    /* \"#utility.yul\":694:820   */\n  swap2\n  swap1\n  pop\n  jump\t// out\n    /* \"#utility.yul\":826:922   */\ntag_14:\n    /* \"#utility.yul\":863:870   */\n  0x00\n    /* \"#utility.yul\":892:916   */\n  tag_29\n    /* \"#utility.yul\":910:915   */\n  dup3\n    /* \"#utility.yul\":892:916   */\n  tag_13\n  jump\t// in\ntag_29:\n    /* \"#utility.yul\":881:916   */\n  swap1\n  pop\n    /* \"#utility.yul\":826:922   */\n  swap2\n  swap1\n  pop\n  jump\t// out\n    /* \"#utility.yul\":928:1050   */\ntag_15:\n    /* \"#utility.yul\":1001:1025   */\n  tag_31\n    /* \"#utility.yul\":1019:1024   */\n  dup2\n    /* \"#utility.yul\":1001:1025   */\n  tag_14\n  jump\t// in\ntag_31:\n    /* \"#utility.yul\":994:999   */\n  dup2\n    /* \"#utility.yul\":991:1026   */\n  eq\n    /* \"#utility.yul\":981:1044   */\n  tag_32\n  jumpi\n    /* \"#utility.yul\":1040:1041   */\n  0x00\n    /* \"#utility.yul\":1037:1038   */\n  dup1\n    /* \"#utility.yul\":1030:1042   */\n  revert\n    /* \"#utility.yul\":981:1044   */\ntag_32:\n    /* \"#utility.yul\":928:1050   */\n  pop\n  jump\t// out\n    /* \"#utility.yul\":1056:1199   */\ntag_16:\n    /* \"#utility.yul\":1113:1118   */\n  0x00\n    /* \"#utility.yul\":1144:1150   */\n  dup2\n    /* \"#utility.yul\":1138:1151   */\n  mload\n    /* \"#utility.yul\":1129:1151   */\n  swap1\n  pop\n    /* \"#utility.yul\":1160:1193   */\n  tag_34\n    /* \"#utility.yul\":1187:1192   */\n  dup2\n    /* \"#utility.yul\":1160:1193   */\n  tag_15\n  jump\t// in\ntag_34:\n    /* \"#utility.yul\":1056:1199   */\n  swap3\n  swap2\n  pop\n  pop\n  jump\t// out\n    /* \"#utility.yul\":1205:1712   */\ntag_3:\n    /* \"#utility.yul\":1284:1290   */\n  0x00\n    /* \"#utility.yul\":1292:1298   */\n  dup1\n    /* \"#utility.yul\":1341:1343   */\n  0x40\n    /* \"#utility.yul\":1329:1338   */\n  dup4\n    /* \"#utility.yul\":1320:1327   */\n  dup6\n    /* \"#utility.yul\":1316:1339   */\n  sub\n    /* \"#utility.yul\":1312:1344   */\n  slt\n    /* \"#utility.yul\":1309:1428   */\n  iszero\n  tag_36\n  jumpi\n    /* \"#utility.yul\":1347:1426   */\n  tag_37\n  tag_8\n  jump\t// in\ntag_37:\n    /* \"#utility.yul\":1309:1428   */\ntag_36:\n    /* \"#utility.yul\":1467:1468   */\n  0x00\n    /* \"#utility.yul\":1492:1556   */\n  tag_38\n    /* \"#utility.yul\":1548:1555   */\n  dup6\n    /* \"#utility.yul\":1539:1545   */\n  dup3\n    /* \"#utility.yul\":1528:1537   */\n  dup7\n    /* \"#utility.yul\":1524:1546   */\n  add\n    /* \"#utility.yul\":1492:1556   */\n  tag_12\n  jump\t// in\ntag_38:\n    /* \"#utility.yul\":1482:1556   */\n  swap3\n  pop\n    /* \"#utility.yul\":1438:1566   */\n  pop\n    /* \"#utility.yul\":1605:1607   */\n  0x20\n    /* \"#utility.yul\":1631:1695   */\n  tag_39\n    /* \"#utility.yul\":1687:1694   */\n  dup6\n    /* \"#utility.yul\":1678:1684   */\n  dup3\n    /* \"#utility.yul\":1667:1676   */\n  dup7\n    /* \"#utility.yul\":1663:1685   */\n  add\n    /* \"#utility.yul\":1631:1695   */\n  tag_16\n  jump\t// in\ntag_39:\n    /* \"#utility.yul\":1621:1695   */\n  swap2\n  pop\n    /* \"#utility.yul\":1576:1705   */\n  pop\n    /* \"#utility.yul\":1205:1712   */\n  swap3\n  pop\n  swap3\n  swap1\n  pop\n  jump\t// out\n    /* \"Campaign.sol\":470:2587  contract Campaign {... */\ntag_6:\n  dataSize(sub_0)\n  dup1\n  dataOffset(sub_0)\n  0x00\n  codecopy\n  0x00\n  return\nstop\n\nsub_0: assembly {\n        /* \"Campaign.sol\":470:2587  contract Campaign {... */\n      mstore(0x40, 0x80)\n      jumpi(tag_1, lt(calldatasize, 0x04))\n      shr(0xe0, calldataload(0x00))\n      dup1\n      0x8a9cfd55\n      gt\n      tag_12\n      jumpi\n      dup1\n      0x8a9cfd55\n      eq\n      tag_7\n      jumpi\n      dup1\n      0x937e09b1\n      eq\n      tag_8\n      jumpi\n      dup1\n      0x9fb42b1f\n      eq\n      tag_9\n      jumpi\n      dup1\n      0xd7bb99ba\n      eq\n      tag_10\n      jumpi\n      dup1\n      0xd7d1bbdb\n      eq\n      tag_11\n      jumpi\n      jump(tag_1)\n    tag_12:\n      dup1\n      0x03441006\n      eq\n      tag_2\n      jumpi\n      dup1\n      0x0a144391\n      eq\n      tag_3\n      jumpi\n      dup1\n      0x481c6a75\n      eq\n      tag_4\n      jumpi\n      dup1\n      0x6345cb08\n      eq\n      tag_5\n      jumpi\n      dup1\n      0x81d12c58\n      eq\n      tag_6\n      jumpi\n    tag_1:\n      0x00\n      dup1\n      revert\n        /* \"Campaign.sol\":2220:2582  function finalizeRequest(uint index) public payable restricted {... */\n    tag_2:\n      tag_13\n      0x04\n      dup1\n      calldatasize\n      sub\n      dup2\n      add\n      swap1\n      tag_14\n      swap2\n      swap1\n      tag_15\n      jump\t// in\n    tag_14:\n      tag_16\n      jump\t// in\n    tag_13:\n      stop\n        /* \"Campaign.sol\":802:843  mapping(address => bool) public approvers */\n    tag_3:\n      callvalue\n      dup1\n      iszero\n      tag_17\n      jumpi\n      0x00\n      dup1\n      revert\n    tag_17:\n      pop\n      tag_18\n      0x04\n      dup1\n      calldatasize\n      sub\n      dup2\n      add\n      swap1\n      tag_19\n      swap2\n      swap1\n      tag_20\n      jump\t// in\n    tag_19:\n      tag_21\n      jump\t// in\n    tag_18:\n      mload(0x40)\n      tag_22\n      swap2\n      swap1\n      tag_23\n      jump\t// in\n    tag_22:\n      mload(0x40)\n      dup1\n      swap2\n      sub\n      swap1\n      return\n        /* \"Campaign.sol\":740:762  address public manager */\n    tag_4:\n      callvalue\n      dup1\n      iszero\n      tag_24\n      jumpi\n      0x00\n      dup1\n      revert\n    tag_24:\n      pop\n      tag_25\n      tag_26\n      jump\t// in\n    tag_25:\n      mload(0x40)\n      tag_27\n      swap2\n      swap1\n      tag_28\n      jump\t// in\n    tag_27:\n      mload(0x40)\n      dup1\n      swap2\n      sub\n      swap1\n      return\n        /* \"Campaign.sol\":771:795  uint public numApprovers */\n    tag_5:\n      callvalue\n      dup1\n      iszero\n      tag_29\n      jumpi\n      0x00\n      dup1\n      revert\n    tag_29:\n      pop\n      tag_30\n      tag_31\n      jump\t// in\n    tag_30:\n      mload(0x40)\n      tag_32\n      swap2\n      swap1\n      tag_33\n      jump\t// in\n    tag_32:\n      mload(0x40)\n      dup1\n      swap2\n      sub\n      swap1\n      return\n        /* \"Campaign.sol\":926:966  mapping(uint => Request) public requests */\n    tag_6:\n      callvalue\n      dup1\n      iszero\n      tag_34\n      jumpi\n      0x00\n      dup1\n      revert\n    tag_34:\n      pop\n      tag_35\n      0x04\n      dup1\n      calldatasize\n      sub\n      dup2\n      add\n      swap1\n      tag_36\n      swap2\n      swap1\n      tag_15\n      jump\t// in\n    tag_36:\n      tag_37\n      jump\t// in\n    tag_35:\n      mload(0x40)\n      tag_38\n      swap6\n      swap5\n      swap4\n      swap3\n      swap2\n      swap1\n      tag_39\n      jump\t// in\n    tag_38:\n      mload(0x40)\n      dup1\n      swap2\n      sub\n      swap1\n      return\n        /* \"Campaign.sol\":1396:1829  function createRequest(... */\n    tag_7:\n      callvalue\n      dup1\n      iszero\n      tag_40\n      jumpi\n      0x00\n      dup1\n      revert\n    tag_40:\n      pop\n      tag_41\n      0x04\n      dup1\n      calldatasize\n      sub\n      dup2\n      add\n      swap1\n      tag_42\n      swap2\n      swap1\n      tag_43\n      jump\t// in\n    tag_42:\n      tag_44\n      jump\t// in\n    tag_41:\n      stop\n        /* \"Campaign.sol\":856:887  uint public minimumContribution */\n    tag_8:\n      callvalue\n      dup1\n      iszero\n      tag_45\n      jumpi\n      0x00\n      dup1\n      revert\n    tag_45:\n      pop\n      tag_46\n      tag_47\n      jump\t// in\n    tag_46:\n      mload(0x40)\n      tag_48\n      swap2\n      swap1\n      tag_33\n      jump\t// in\n    tag_48:\n      mload(0x40)\n      dup1\n      swap2\n      sub\n      swap1\n      return\n        /* \"Campaign.sol\":896:919  uint public numRequests */\n    tag_9:\n      callvalue\n      dup1\n      iszero\n      tag_49\n      jumpi\n      0x00\n      dup1\n      revert\n    tag_49:\n      pop\n      tag_50\n      tag_51\n      jump\t// in\n    tag_50:\n      mload(0x40)\n      tag_52\n      swap2\n      swap1\n      tag_33\n      jump\t// in\n    tag_52:\n      mload(0x40)\n      dup1\n      swap2\n      sub\n      swap1\n      return\n        /* \"Campaign.sol\":1226:1388  function contribute() public payable {... */\n    tag_10:\n      tag_53\n      tag_54\n      jump\t// in\n    tag_53:\n      stop\n        /* \"Campaign.sol\":1837:2212  function approveRequest(uint index) public {... */\n    tag_11:\n      callvalue\n      dup1\n      iszero\n      tag_55\n      jumpi\n      0x00\n      dup1\n      revert\n    tag_55:\n      pop\n      tag_56\n      0x04\n      dup1\n      calldatasize\n      sub\n      dup2\n      add\n      swap1\n      tag_57\n      swap2\n      swap1\n      tag_15\n      jump\t// in\n    tag_57:\n      tag_58\n      jump\t// in\n    tag_56:\n      stop\n        /* \"Campaign.sol\":2220:2582  function finalizeRequest(uint index) public payable restricted {... */\n    tag_16:\n        /* \"Campaign.sol\":1036:1043  manager */\n      0x00\n      dup1\n      sload\n      swap1\n      0x0100\n      exp\n      swap1\n      div\n      0xffffffffffffffffffffffffffffffffffffffff\n      and\n        /* \"Campaign.sol\":1022:1043  msg.sender == manager */\n      0xffffffffffffffffffffffffffffffffffffffff\n      and\n        /* \"Campaign.sol\":1022:1032  msg.sender */\n      caller\n        /* \"Campaign.sol\":1022:1043  msg.sender == manager */\n      0xffffffffffffffffffffffffffffffffffffffff\n      and\n      eq\n        /* \"Campaign.sol\":1014:1044  require(msg.sender == manager) */\n      tag_60\n      jumpi\n      0x00\n      dup1\n      revert\n    tag_60:\n        /* \"Campaign.sol\":2296:2319  Request storage request */\n      0x00\n        /* \"Campaign.sol\":2322:2330  requests */\n      0x05\n        /* \"Campaign.sol\":2322:2337  requests[index] */\n      0x00\n        /* \"Campaign.sol\":2331:2336  index */\n      dup4\n        /* \"Campaign.sol\":2322:2337  requests[index] */\n      dup2\n      mstore\n      0x20\n      add\n      swap1\n      dup2\n      mstore\n      0x20\n      add\n      0x00\n      keccak256\n        /* \"Campaign.sol\":2296:2337  Request storage request = requests[index] */\n      swap1\n      pop\n        /* \"Campaign.sol\":2359:2366  request */\n      dup1\n        /* \"Campaign.sol\":2359:2375  request.complete */\n      0x02\n      add\n      0x14\n      swap1\n      sload\n      swap1\n      0x0100\n      exp\n      swap1\n      div\n      0xff\n      and\n        /* \"Campaign.sol\":2358:2375  !request.complete */\n      iszero\n        /* \"Campaign.sol\":2350:2376  require(!request.complete) */\n      tag_62\n      jumpi\n      0x00\n      dup1\n      revert\n    tag_62:\n        /* \"Campaign.sol\":2435:2436  2 */\n      0x02\n        /* \"Campaign.sol\":2420:2432  numApprovers */\n      sload(0x01)\n        /* \"Campaign.sol\":2420:2436  numApprovers / 2 */\n      tag_63\n      swap2\n      swap1\n      tag_64\n      jump\t// in\n    tag_63:\n        /* \"Campaign.sol\":2395:2402  request */\n      dup2\n        /* \"Campaign.sol\":2395:2416  request.approvalCount */\n      0x04\n      add\n      sload\n        /* \"Campaign.sol\":2395:2437  request.approvalCount > (numApprovers / 2) */\n      gt\n        /* \"Campaign.sol\":2387:2438  require(request.approvalCount > (numApprovers / 2)) */\n      tag_65\n      jumpi\n      0x00\n      dup1\n      revert\n    tag_65:\n        /* \"Campaign.sol\":2493:2500  request */\n      dup1\n        /* \"Campaign.sol\":2493:2510  request.recipient */\n      0x02\n      add\n      0x00\n      swap1\n      sload\n      swap1\n      0x0100\n      exp\n      swap1\n      div\n      0xffffffffffffffffffffffffffffffffffffffff\n      and\n        /* \"Campaign.sol\":2493:2519  request.recipient.transfer */\n      0xffffffffffffffffffffffffffffffffffffffff\n      and\n        /* \"Campaign.sol\":2493:2534  request.recipient.transfer(request.value) */\n      0x08fc\n        /* \"Campaign.sol\":2520:2527  request */\n      dup3\n        /* \"Campaign.sol\":2520:2533  request.value */\n      0x01\n      add\n      sload\n        /* \"Campaign.sol\":2493:2534  request.recipient.transfer(request.value) */\n      swap1\n      dup2\n      iszero\n      mul\n      swap1\n      mload(0x40)\n      0x00\n      mload(0x40)\n      dup1\n      dup4\n      sub\n      dup2\n      dup6\n      dup9\n      dup9\n      call\n      swap4\n      pop\n      pop\n      pop\n      pop\n      iszero\n      dup1\n      iszero\n      tag_67\n      jumpi\n      returndatasize\n      0x00\n      dup1\n      returndatacopy\n      revert(0x00, returndatasize)\n    tag_67:\n      pop\n        /* \"Campaign.sol\":2570:2574  true */\n      0x01\n        /* \"Campaign.sol\":2551:2558  request */\n      dup2\n        /* \"Campaign.sol\":2551:2567  request.complete */\n      0x02\n      add\n      0x14\n        /* \"Campaign.sol\":2551:2574  request.complete = true */\n      0x0100\n      exp\n      dup2\n      sload\n      dup2\n      0xff\n      mul\n      not\n      and\n      swap1\n      dup4\n      iszero\n      iszero\n      mul\n      or\n      swap1\n      sstore\n      pop\n        /* \"Campaign.sol\":2283:2582  {... */\n      pop\n        /* \"Campaign.sol\":2220:2582  function finalizeRequest(uint index) public payable restricted {... */\n      pop\n      jump\t// out\n        /* \"Campaign.sol\":802:843  mapping(address => bool) public approvers */\n    tag_21:\n      mstore(0x20, 0x02)\n      dup1\n      0x00\n      mstore\n      keccak256(0x00, 0x40)\n      0x00\n      swap2\n      pop\n      sload\n      swap1\n      0x0100\n      exp\n      swap1\n      div\n      0xff\n      and\n      dup2\n      jump\t// out\n        /* \"Campaign.sol\":740:762  address public manager */\n    tag_26:\n      0x00\n      dup1\n      sload\n      swap1\n      0x0100\n      exp\n      swap1\n      div\n      0xffffffffffffffffffffffffffffffffffffffff\n      and\n      dup2\n      jump\t// out\n        /* \"Campaign.sol\":771:795  uint public numApprovers */\n    tag_31:\n      sload(0x01)\n      dup2\n      jump\t// out\n        /* \"Campaign.sol\":926:966  mapping(uint => Request) public requests */\n    tag_37:\n      mstore(0x20, 0x05)\n      dup1\n      0x00\n      mstore\n      keccak256(0x00, 0x40)\n      0x00\n      swap2\n      pop\n      swap1\n      pop\n      dup1\n      0x00\n      add\n      dup1\n      sload\n      tag_68\n      swap1\n      tag_69\n      jump\t// in\n    tag_68:\n      dup1\n      0x1f\n      add\n      0x20\n      dup1\n      swap2\n      div\n      mul\n      0x20\n      add\n      mload(0x40)\n      swap1\n      dup2\n      add\n      0x40\n      mstore\n      dup1\n      swap3\n      swap2\n      swap1\n      dup2\n      dup2\n      mstore\n      0x20\n      add\n      dup3\n      dup1\n      sload\n      tag_70\n      swap1\n      tag_69\n      jump\t// in\n    tag_70:\n      dup1\n      iszero\n      tag_71\n      jumpi\n      dup1\n      0x1f\n      lt\n      tag_72\n      jumpi\n      0x0100\n      dup1\n      dup4\n      sload\n      div\n      mul\n      dup4\n      mstore\n      swap2\n      0x20\n      add\n      swap2\n      jump(tag_71)\n    tag_72:\n      dup3\n      add\n      swap2\n      swap1\n      0x00\n      mstore\n      keccak256(0x00, 0x20)\n      swap1\n    tag_73:\n      dup2\n      sload\n      dup2\n      mstore\n      swap1\n      0x01\n      add\n      swap1\n      0x20\n      add\n      dup1\n      dup4\n      gt\n      tag_73\n      jumpi\n      dup3\n      swap1\n      sub\n      0x1f\n      and\n      dup3\n      add\n      swap2\n    tag_71:\n      pop\n      pop\n      pop\n      pop\n      pop\n      swap1\n      dup1\n      0x01\n      add\n      sload\n      swap1\n      dup1\n      0x02\n      add\n      0x00\n      swap1\n      sload\n      swap1\n      0x0100\n      exp\n      swap1\n      div\n      0xffffffffffffffffffffffffffffffffffffffff\n      and\n      swap1\n      dup1\n      0x02\n      add\n      0x14\n      swap1\n      sload\n      swap1\n      0x0100\n      exp\n      swap1\n      div\n      0xff\n      and\n      swap1\n      dup1\n      0x04\n      add\n      sload\n      swap1\n      pop\n      dup6\n      jump\t// out\n        /* \"Campaign.sol\":1396:1829  function createRequest(... */\n    tag_44:\n        /* \"Campaign.sol\":1036:1043  manager */\n      0x00\n      dup1\n      sload\n      swap1\n      0x0100\n      exp\n      swap1\n      div\n      0xffffffffffffffffffffffffffffffffffffffff\n      and\n        /* \"Campaign.sol\":1022:1043  msg.sender == manager */\n      0xffffffffffffffffffffffffffffffffffffffff\n      and\n        /* \"Campaign.sol\":1022:1032  msg.sender */\n      caller\n        /* \"Campaign.sol\":1022:1043  msg.sender == manager */\n      0xffffffffffffffffffffffffffffffffffffffff\n      and\n      eq\n        /* \"Campaign.sol\":1014:1044  require(msg.sender == manager) */\n      tag_75\n      jumpi\n      0x00\n      dup1\n      revert\n    tag_75:\n        /* \"Campaign.sol\":1553:1579  Request storage newRequest */\n      0x00\n        /* \"Campaign.sol\":1582:1590  requests */\n      0x05\n        /* \"Campaign.sol\":1582:1605  requests[numRequests++] */\n      0x00\n        /* \"Campaign.sol\":1591:1602  numRequests */\n      0x04\n      0x00\n        /* \"Campaign.sol\":1591:1604  numRequests++ */\n      dup2\n      sload\n      dup1\n      swap3\n      swap2\n      swap1\n      tag_77\n      swap1\n      tag_78\n      jump\t// in\n    tag_77:\n      swap2\n      swap1\n      pop\n      sstore\n        /* \"Campaign.sol\":1582:1605  requests[numRequests++] */\n      dup2\n      mstore\n      0x20\n      add\n      swap1\n      dup2\n      mstore\n      0x20\n      add\n      0x00\n      keccak256\n        /* \"Campaign.sol\":1553:1605  Request storage newRequest = requests[numRequests++] */\n      swap1\n      pop\n        /* \"Campaign.sol\":1652:1664  _description */\n      dup4\n        /* \"Campaign.sol\":1626:1636  newRequest */\n      dup2\n        /* \"Campaign.sol\":1626:1648  newRequest.description */\n      0x00\n      add\n        /* \"Campaign.sol\":1626:1664  newRequest.description =  _description */\n      swap1\n      dup1\n      mload\n      swap1\n      0x20\n      add\n      swap1\n      tag_79\n      swap3\n      swap2\n      swap1\n      tag_80\n      jump\t// in\n    tag_79:\n      pop\n        /* \"Campaign.sol\":1694:1700  _value */\n      dup3\n        /* \"Campaign.sol\":1675:1685  newRequest */\n      dup2\n        /* \"Campaign.sol\":1675:1691  newRequest.value */\n      0x01\n      add\n        /* \"Campaign.sol\":1675:1700  newRequest.value = _value */\n      dup2\n      swap1\n      sstore\n      pop\n        /* \"Campaign.sol\":1734:1744  _recipient */\n      dup2\n        /* \"Campaign.sol\":1711:1721  newRequest */\n      dup2\n        /* \"Campaign.sol\":1711:1731  newRequest.recipient */\n      0x02\n      add\n      0x00\n        /* \"Campaign.sol\":1711:1744  newRequest.recipient = _recipient */\n      0x0100\n      exp\n      dup2\n      sload\n      dup2\n      0xffffffffffffffffffffffffffffffffffffffff\n      mul\n      not\n      and\n      swap1\n      dup4\n      0xffffffffffffffffffffffffffffffffffffffff\n      and\n      mul\n      or\n      swap1\n      sstore\n      pop\n        /* \"Campaign.sol\":1777:1782  false */\n      0x00\n        /* \"Campaign.sol\":1755:1765  newRequest */\n      dup2\n        /* \"Campaign.sol\":1755:1774  newRequest.complete */\n      0x02\n      add\n      0x14\n        /* \"Campaign.sol\":1755:1782  newRequest.complete = false */\n      0x0100\n      exp\n      dup2\n      sload\n      dup2\n      0xff\n      mul\n      not\n      and\n      swap1\n      dup4\n      iszero\n      iszero\n      mul\n      or\n      swap1\n      sstore\n      pop\n        /* \"Campaign.sol\":1820:1821  0 */\n      0x00\n        /* \"Campaign.sol\":1793:1803  newRequest */\n      dup2\n        /* \"Campaign.sol\":1793:1817  newRequest.approvalCount */\n      0x04\n      add\n        /* \"Campaign.sol\":1793:1821  newRequest.approvalCount = 0 */\n      dup2\n      swap1\n      sstore\n      pop\n        /* \"Campaign.sol\":1540:1829  {... */\n      pop\n        /* \"Campaign.sol\":1396:1829  function createRequest(... */\n      pop\n      pop\n      pop\n      jump\t// out\n        /* \"Campaign.sol\":856:887  uint public minimumContribution */\n    tag_47:\n      sload(0x03)\n      dup2\n      jump\t// out\n        /* \"Campaign.sol\":896:919  uint public numRequests */\n    tag_51:\n      sload(0x04)\n      dup2\n      jump\t// out\n        /* \"Campaign.sol\":1226:1388  function contribute() public payable {... */\n    tag_54:\n        /* \"Campaign.sol\":1294:1313  minimumContribution */\n      sload(0x03)\n        /* \"Campaign.sol\":1282:1291  msg.value */\n      callvalue\n        /* \"Campaign.sol\":1282:1313  msg.value > minimumContribution */\n      gt\n        /* \"Campaign.sol\":1274:1314  require(msg.value > minimumContribution) */\n      tag_82\n      jumpi\n      0x00\n      dup1\n      revert\n    tag_82:\n        /* \"Campaign.sol\":1349:1353  true */\n      0x01\n        /* \"Campaign.sol\":1325:1334  approvers */\n      0x02\n        /* \"Campaign.sol\":1325:1346  approvers[msg.sender] */\n      0x00\n        /* \"Campaign.sol\":1335:1345  msg.sender */\n      caller\n        /* \"Campaign.sol\":1325:1346  approvers[msg.sender] */\n      0xffffffffffffffffffffffffffffffffffffffff\n      and\n      0xffffffffffffffffffffffffffffffffffffffff\n      and\n      dup2\n      mstore\n      0x20\n      add\n      swap1\n      dup2\n      mstore\n      0x20\n      add\n      0x00\n      keccak256\n      0x00\n        /* \"Campaign.sol\":1325:1353  approvers[msg.sender] = true */\n      0x0100\n      exp\n      dup2\n      sload\n      dup2\n      0xff\n      mul\n      not\n      and\n      swap1\n      dup4\n      iszero\n      iszero\n      mul\n      or\n      swap1\n      sstore\n      pop\n        /* \"Campaign.sol\":1366:1377  numRequests */\n      0x04\n      0x00\n        /* \"Campaign.sol\":1366:1380  numRequests ++ */\n      dup2\n      sload\n      dup1\n      swap3\n      swap2\n      swap1\n      tag_83\n      swap1\n      tag_78\n      jump\t// in\n    tag_83:\n      swap2\n      swap1\n      pop\n      sstore\n      pop\n        /* \"Campaign.sol\":1226:1388  function contribute() public payable {... */\n      jump\t// out\n        /* \"Campaign.sol\":1837:2212  function approveRequest(uint index) public {... */\n    tag_58:\n        /* \"Campaign.sol\":1891:1914  Request storage request */\n      0x00\n        /* \"Campaign.sol\":1917:1925  requests */\n      0x05\n        /* \"Campaign.sol\":1917:1932  requests[index] */\n      0x00\n        /* \"Campaign.sol\":1926:1931  index */\n      dup4\n        /* \"Campaign.sol\":1917:1932  requests[index] */\n      dup2\n      mstore\n      0x20\n      add\n      swap1\n      dup2\n      mstore\n      0x20\n      add\n      0x00\n      keccak256\n        /* \"Campaign.sol\":1891:1932  Request storage request = requests[index] */\n      swap1\n      pop\n        /* \"Campaign.sol\":2038:2047  approvers */\n      0x02\n        /* \"Campaign.sol\":2038:2059  approvers[msg.sender] */\n      0x00\n        /* \"Campaign.sol\":2048:2058  msg.sender */\n      caller\n        /* \"Campaign.sol\":2038:2059  approvers[msg.sender] */\n      0xffffffffffffffffffffffffffffffffffffffff\n      and\n      0xffffffffffffffffffffffffffffffffffffffff\n      and\n      dup2\n      mstore\n      0x20\n      add\n      swap1\n      dup2\n      mstore\n      0x20\n      add\n      0x00\n      keccak256\n      0x00\n      swap1\n      sload\n      swap1\n      0x0100\n      exp\n      swap1\n      div\n      0xff\n      and\n        /* \"Campaign.sol\":2030:2060  require(approvers[msg.sender]) */\n      tag_85\n      jumpi\n      0x00\n      dup1\n      revert\n    tag_85:\n        /* \"Campaign.sol\":2080:2087  request */\n      dup1\n        /* \"Campaign.sol\":2080:2097  request.approvals */\n      0x03\n      add\n        /* \"Campaign.sol\":2080:2109  request.approvals[msg.sender] */\n      0x00\n        /* \"Campaign.sol\":2098:2108  msg.sender */\n      caller\n        /* \"Campaign.sol\":2080:2109  request.approvals[msg.sender] */\n      0xffffffffffffffffffffffffffffffffffffffff\n      and\n      0xffffffffffffffffffffffffffffffffffffffff\n      and\n      dup2\n      mstore\n      0x20\n      add\n      swap1\n      dup2\n      mstore\n      0x20\n      add\n      0x00\n      keccak256\n      0x00\n      swap1\n      sload\n      swap1\n      0x0100\n      exp\n      swap1\n      div\n      0xff\n      and\n        /* \"Campaign.sol\":2079:2109  !request.approvals[msg.sender] */\n      iszero\n        /* \"Campaign.sol\":2071:2110  require(!request.approvals[msg.sender]) */\n      tag_86\n      jumpi\n      0x00\n      dup1\n      revert\n    tag_86:\n        /* \"Campaign.sol\":2131:2138  request */\n      dup1\n        /* \"Campaign.sol\":2131:2152  request.approvalCount */\n      0x04\n      add\n      0x00\n        /* \"Campaign.sol\":2131:2155  request.approvalCount ++ */\n      dup2\n      sload\n      dup1\n      swap3\n      swap2\n      swap1\n      tag_87\n      swap1\n      tag_78\n      jump\t// in\n    tag_87:\n      swap2\n      swap1\n      pop\n      sstore\n      pop\n        /* \"Campaign.sol\":2198:2202  true */\n      0x01\n        /* \"Campaign.sol\":2166:2173  request */\n      dup2\n        /* \"Campaign.sol\":2166:2183  request.approvals */\n      0x03\n      add\n        /* \"Campaign.sol\":2166:2195  request.approvals[msg.sender] */\n      0x00\n        /* \"Campaign.sol\":2184:2194  msg.sender */\n      caller\n        /* \"Campaign.sol\":2166:2195  request.approvals[msg.sender] */\n      0xffffffffffffffffffffffffffffffffffffffff\n      and\n      0xffffffffffffffffffffffffffffffffffffffff\n      and\n      dup2\n      mstore\n      0x20\n      add\n      swap1\n      dup2\n      mstore\n      0x20\n      add\n      0x00\n      keccak256\n      0x00\n        /* \"Campaign.sol\":2166:2202  request.approvals[msg.sender] = true */\n      0x0100\n      exp\n      dup2\n      sload\n      dup2\n      0xff\n      mul\n      not\n      and\n      swap1\n      dup4\n      iszero\n      iszero\n      mul\n      or\n      swap1\n      sstore\n      pop\n        /* \"Campaign.sol\":1880:2212  {... */\n      pop\n        /* \"Campaign.sol\":1837:2212  function approveRequest(uint index) public {... */\n      pop\n      jump\t// out\n    tag_80:\n      dup3\n      dup1\n      sload\n      tag_88\n      swap1\n      tag_69\n      jump\t// in\n    tag_88:\n      swap1\n      0x00\n      mstore\n      keccak256(0x00, 0x20)\n      swap1\n      0x1f\n      add\n      0x20\n      swap1\n      div\n      dup2\n      add\n      swap3\n      dup3\n      tag_90\n      jumpi\n      0x00\n      dup6\n      sstore\n      jump(tag_89)\n    tag_90:\n      dup3\n      0x1f\n      lt\n      tag_91\n      jumpi\n      dup1\n      mload\n      not(0xff)\n      and\n      dup4\n      dup1\n      add\n      or\n      dup6\n      sstore\n      jump(tag_89)\n    tag_91:\n      dup3\n      dup1\n      add\n      0x01\n      add\n      dup6\n      sstore\n      dup3\n      iszero\n      tag_89\n      jumpi\n      swap2\n      dup3\n      add\n    tag_92:\n      dup3\n      dup2\n      gt\n      iszero\n      tag_93\n      jumpi\n      dup3\n      mload\n      dup3\n      sstore\n      swap2\n      0x20\n      add\n      swap2\n      swap1\n      0x01\n      add\n      swap1\n      jump(tag_92)\n    tag_93:\n    tag_89:\n      pop\n      swap1\n      pop\n      tag_94\n      swap2\n      swap1\n      tag_95\n      jump\t// in\n    tag_94:\n      pop\n      swap1\n      jump\t// out\n    tag_95:\n    tag_96:\n      dup1\n      dup3\n      gt\n      iszero\n      tag_97\n      jumpi\n      0x00\n      dup2\n      0x00\n      swap1\n      sstore\n      pop\n      0x01\n      add\n      jump(tag_96)\n    tag_97:\n      pop\n      swap1\n      jump\t// out\n        /* \"#utility.yul\":7:82   */\n    tag_98:\n        /* \"#utility.yul\":40:46   */\n      0x00\n        /* \"#utility.yul\":73:75   */\n      0x40\n        /* \"#utility.yul\":67:76   */\n      mload\n        /* \"#utility.yul\":57:76   */\n      swap1\n      pop\n        /* \"#utility.yul\":7:82   */\n      swap1\n      jump\t// out\n        /* \"#utility.yul\":88:205   */\n    tag_99:\n        /* \"#utility.yul\":197:198   */\n      0x00\n        /* \"#utility.yul\":194:195   */\n      dup1\n        /* \"#utility.yul\":187:199   */\n      revert\n        /* \"#utility.yul\":211:328   */\n    tag_100:\n        /* \"#utility.yul\":320:321   */\n      0x00\n        /* \"#utility.yul\":317:318   */\n      dup1\n        /* \"#utility.yul\":310:322   */\n      revert\n        /* \"#utility.yul\":334:411   */\n    tag_101:\n        /* \"#utility.yul\":371:378   */\n      0x00\n        /* \"#utility.yul\":400:405   */\n      dup2\n        /* \"#utility.yul\":389:405   */\n      swap1\n      pop\n        /* \"#utility.yul\":334:411   */\n      swap2\n      swap1\n      pop\n      jump\t// out\n        /* \"#utility.yul\":417:539   */\n    tag_102:\n        /* \"#utility.yul\":490:514   */\n      tag_139\n        /* \"#utility.yul\":508:513   */\n      dup2\n        /* \"#utility.yul\":490:514   */\n      tag_101\n      jump\t// in\n    tag_139:\n        /* \"#utility.yul\":483:488   */\n      dup2\n        /* \"#utility.yul\":480:515   */\n      eq\n        /* \"#utility.yul\":470:533   */\n      tag_140\n      jumpi\n        /* \"#utility.yul\":529:530   */\n      0x00\n        /* \"#utility.yul\":526:527   */\n      dup1\n        /* \"#utility.yul\":519:531   */\n      revert\n        /* \"#utility.yul\":470:533   */\n    tag_140:\n        /* \"#utility.yul\":417:539   */\n      pop\n      jump\t// out\n        /* \"#utility.yul\":545:684   */\n    tag_103:\n        /* \"#utility.yul\":591:596   */\n      0x00\n        /* \"#utility.yul\":629:635   */\n      dup2\n        /* \"#utility.yul\":616:636   */\n      calldataload\n        /* \"#utility.yul\":607:636   */\n      swap1\n      pop\n        /* \"#utility.yul\":645:678   */\n      tag_142\n        /* \"#utility.yul\":672:677   */\n      dup2\n        /* \"#utility.yul\":645:678   */\n      tag_102\n      jump\t// in\n    tag_142:\n        /* \"#utility.yul\":545:684   */\n      swap3\n      swap2\n      pop\n      pop\n      jump\t// out\n        /* \"#utility.yul\":690:1019   */\n    tag_15:\n        /* \"#utility.yul\":749:755   */\n      0x00\n        /* \"#utility.yul\":798:800   */\n      0x20\n        /* \"#utility.yul\":786:795   */\n      dup3\n        /* \"#utility.yul\":777:784   */\n      dup5\n        /* \"#utility.yul\":773:796   */\n      sub\n        /* \"#utility.yul\":769:801   */\n      slt\n        /* \"#utility.yul\":766:885   */\n      iszero\n      tag_144\n      jumpi\n        /* \"#utility.yul\":804:883   */\n      tag_145\n      tag_99\n      jump\t// in\n    tag_145:\n        /* \"#utility.yul\":766:885   */\n    tag_144:\n        /* \"#utility.yul\":924:925   */\n      0x00\n        /* \"#utility.yul\":949:1002   */\n      tag_146\n        /* \"#utility.yul\":994:1001   */\n      dup5\n        /* \"#utility.yul\":985:991   */\n      dup3\n        /* \"#utility.yul\":974:983   */\n      dup6\n        /* \"#utility.yul\":970:992   */\n      add\n        /* \"#utility.yul\":949:1002   */\n      tag_103\n      jump\t// in\n    tag_146:\n        /* \"#utility.yul\":939:1002   */\n      swap2\n      pop\n        /* \"#utility.yul\":895:1012   */\n      pop\n        /* \"#utility.yul\":690:1019   */\n      swap3\n      swap2\n      pop\n      pop\n      jump\t// out\n        /* \"#utility.yul\":1025:1151   */\n    tag_104:\n        /* \"#utility.yul\":1062:1069   */\n      0x00\n        /* \"#utility.yul\":1102:1144   */\n      0xffffffffffffffffffffffffffffffffffffffff\n        /* \"#utility.yul\":1095:1100   */\n      dup3\n        /* \"#utility.yul\":1091:1145   */\n      and\n        /* \"#utility.yul\":1080:1145   */\n      swap1\n      pop\n        /* \"#utility.yul\":1025:1151   */\n      swap2\n      swap1\n      pop\n      jump\t// out\n        /* \"#utility.yul\":1157:1253   */\n    tag_105:\n        /* \"#utility.yul\":1194:1201   */\n      0x00\n        /* \"#utility.yul\":1223:1247   */\n      tag_149\n        /* \"#utility.yul\":1241:1246   */\n      dup3\n        /* \"#utility.yul\":1223:1247   */\n      tag_104\n      jump\t// in\n    tag_149:\n        /* \"#utility.yul\":1212:1247   */\n      swap1\n      pop\n        /* \"#utility.yul\":1157:1253   */\n      swap2\n      swap1\n      pop\n      jump\t// out\n        /* \"#utility.yul\":1259:1381   */\n    tag_106:\n        /* \"#utility.yul\":1332:1356   */\n      tag_151\n        /* \"#utility.yul\":1350:1355   */\n      dup2\n        /* \"#utility.yul\":1332:1356   */\n      tag_105\n      jump\t// in\n    tag_151:\n        /* \"#utility.yul\":1325:1330   */\n      dup2\n        /* \"#utility.yul\":1322:1357   */\n      eq\n        /* \"#utility.yul\":1312:1375   */\n      tag_152\n      jumpi\n        /* \"#utility.yul\":1371:1372   */\n      0x00\n        /* \"#utility.yul\":1368:1369   */\n      dup1\n        /* \"#utility.yul\":1361:1373   */\n      revert\n        /* \"#utility.yul\":1312:1375   */\n    tag_152:\n        /* \"#utility.yul\":1259:1381   */\n      pop\n      jump\t// out\n        /* \"#utility.yul\":1387:1526   */\n    tag_107:\n        /* \"#utility.yul\":1433:1438   */\n      0x00\n        /* \"#utility.yul\":1471:1477   */\n      dup2\n        /* \"#utility.yul\":1458:1478   */\n      calldataload\n        /* \"#utility.yul\":1449:1478   */\n      swap1\n      pop\n        /* \"#utility.yul\":1487:1520   */\n      tag_154\n        /* \"#utility.yul\":1514:1519   */\n      dup2\n        /* \"#utility.yul\":1487:1520   */\n      tag_106\n      jump\t// in\n    tag_154:\n        /* \"#utility.yul\":1387:1526   */\n      swap3\n      swap2\n      pop\n      pop\n      jump\t// out\n        /* \"#utility.yul\":1532:1861   */\n    tag_20:\n        /* \"#utility.yul\":1591:1597   */\n      0x00\n        /* \"#utility.yul\":1640:1642   */\n      0x20\n        /* \"#utility.yul\":1628:1637   */\n      dup3\n        /* \"#utility.yul\":1619:1626   */\n      dup5\n        /* \"#utility.yul\":1615:1638   */\n      sub\n        /* \"#utility.yul\":1611:1643   */\n      slt\n        /* \"#utility.yul\":1608:1727   */\n      iszero\n      tag_156\n      jumpi\n        /* \"#utility.yul\":1646:1725   */\n      tag_157\n      tag_99\n      jump\t// in\n    tag_157:\n        /* \"#utility.yul\":1608:1727   */\n    tag_156:\n        /* \"#utility.yul\":1766:1767   */\n      0x00\n        /* \"#utility.yul\":1791:1844   */\n      tag_158\n        /* \"#utility.yul\":1836:1843   */\n      dup5\n        /* \"#utility.yul\":1827:1833   */\n      dup3\n        /* \"#utility.yul\":1816:1825   */\n      dup6\n        /* \"#utility.yul\":1812:1834   */\n      add\n        /* \"#utility.yul\":1791:1844   */\n      tag_107\n      jump\t// in\n    tag_158:\n        /* \"#utility.yul\":1781:1844   */\n      swap2\n      pop\n        /* \"#utility.yul\":1737:1854   */\n      pop\n        /* \"#utility.yul\":1532:1861   */\n      swap3\n      swap2\n      pop\n      pop\n      jump\t// out\n        /* \"#utility.yul\":1867:1957   */\n    tag_108:\n        /* \"#utility.yul\":1901:1908   */\n      0x00\n        /* \"#utility.yul\":1944:1949   */\n      dup2\n        /* \"#utility.yul\":1937:1950   */\n      iszero\n        /* \"#utility.yul\":1930:1951   */\n      iszero\n        /* \"#utility.yul\":1919:1951   */\n      swap1\n      pop\n        /* \"#utility.yul\":1867:1957   */\n      swap2\n      swap1\n      pop\n      jump\t// out\n        /* \"#utility.yul\":1963:2072   */\n    tag_109:\n        /* \"#utility.yul\":2044:2065   */\n      tag_161\n        /* \"#utility.yul\":2059:2064   */\n      dup2\n        /* \"#utility.yul\":2044:2065   */\n      tag_108\n      jump\t// in\n    tag_161:\n        /* \"#utility.yul\":2039:2042   */\n      dup3\n        /* \"#utility.yul\":2032:2066   */\n      mstore\n        /* \"#utility.yul\":1963:2072   */\n      pop\n      pop\n      jump\t// out\n        /* \"#utility.yul\":2078:2288   */\n    tag_23:\n        /* \"#utility.yul\":2165:2169   */\n      0x00\n        /* \"#utility.yul\":2203:2205   */\n      0x20\n        /* \"#utility.yul\":2192:2201   */\n      dup3\n        /* \"#utility.yul\":2188:2206   */\n      add\n        /* \"#utility.yul\":2180:2206   */\n      swap1\n      pop\n        /* \"#utility.yul\":2216:2281   */\n      tag_163\n        /* \"#utility.yul\":2278:2279   */\n      0x00\n        /* \"#utility.yul\":2267:2276   */\n      dup4\n        /* \"#utility.yul\":2263:2280   */\n      add\n        /* \"#utility.yul\":2254:2260   */\n      dup5\n        /* \"#utility.yul\":2216:2281   */\n      tag_109\n      jump\t// in\n    tag_163:\n        /* \"#utility.yul\":2078:2288   */\n      swap3\n      swap2\n      pop\n      pop\n      jump\t// out\n        /* \"#utility.yul\":2294:2412   */\n    tag_110:\n        /* \"#utility.yul\":2381:2405   */\n      tag_165\n        /* \"#utility.yul\":2399:2404   */\n      dup2\n        /* \"#utility.yul\":2381:2405   */\n      tag_105\n      jump\t// in\n    tag_165:\n        /* \"#utility.yul\":2376:2379   */\n      dup3\n        /* \"#utility.yul\":2369:2406   */\n      mstore\n        /* \"#utility.yul\":2294:2412   */\n      pop\n      pop\n      jump\t// out\n        /* \"#utility.yul\":2418:2640   */\n    tag_28:\n        /* \"#utility.yul\":2511:2515   */\n      0x00\n        /* \"#utility.yul\":2549:2551   */\n      0x20\n        /* \"#utility.yul\":2538:2547   */\n      dup3\n        /* \"#utility.yul\":2534:2552   */\n      add\n        /* \"#utility.yul\":2526:2552   */\n      swap1\n      pop\n        /* \"#utility.yul\":2562:2633   */\n      tag_167\n        /* \"#utility.yul\":2630:2631   */\n      0x00\n        /* \"#utility.yul\":2619:2628   */\n      dup4\n        /* \"#utility.yul\":2615:2632   */\n      add\n        /* \"#utility.yul\":2606:2612   */\n      dup5\n        /* \"#utility.yul\":2562:2633   */\n      tag_110\n      jump\t// in\n    tag_167:\n        /* \"#utility.yul\":2418:2640   */\n      swap3\n      swap2\n      pop\n      pop\n      jump\t// out\n        /* \"#utility.yul\":2646:2764   */\n    tag_111:\n        /* \"#utility.yul\":2733:2757   */\n      tag_169\n        /* \"#utility.yul\":2751:2756   */\n      dup2\n        /* \"#utility.yul\":2733:2757   */\n      tag_101\n      jump\t// in\n    tag_169:\n        /* \"#utility.yul\":2728:2731   */\n      dup3\n        /* \"#utility.yul\":2721:2758   */\n      mstore\n        /* \"#utility.yul\":2646:2764   */\n      pop\n      pop\n      jump\t// out\n        /* \"#utility.yul\":2770:2992   */\n    tag_33:\n        /* \"#utility.yul\":2863:2867   */\n      0x00\n        /* \"#utility.yul\":2901:2903   */\n      0x20\n        /* \"#utility.yul\":2890:2899   */\n      dup3\n        /* \"#utility.yul\":2886:2904   */\n      add\n        /* \"#utility.yul\":2878:2904   */\n      swap1\n      pop\n        /* \"#utility.yul\":2914:2985   */\n      tag_171\n        /* \"#utility.yul\":2982:2983   */\n      0x00\n        /* \"#utility.yul\":2971:2980   */\n      dup4\n        /* \"#utility.yul\":2967:2984   */\n      add\n        /* \"#utility.yul\":2958:2964   */\n      dup5\n        /* \"#utility.yul\":2914:2985   */\n      tag_111\n      jump\t// in\n    tag_171:\n        /* \"#utility.yul\":2770:2992   */\n      swap3\n      swap2\n      pop\n      pop\n      jump\t// out\n        /* \"#utility.yul\":2998:3097   */\n    tag_112:\n        /* \"#utility.yul\":3050:3056   */\n      0x00\n        /* \"#utility.yul\":3084:3089   */\n      dup2\n        /* \"#utility.yul\":3078:3090   */\n      mload\n        /* \"#utility.yul\":3068:3090   */\n      swap1\n      pop\n        /* \"#utility.yul\":2998:3097   */\n      swap2\n      swap1\n      pop\n      jump\t// out\n        /* \"#utility.yul\":3103:3272   */\n    tag_113:\n        /* \"#utility.yul\":3187:3198   */\n      0x00\n        /* \"#utility.yul\":3221:3227   */\n      dup3\n        /* \"#utility.yul\":3216:3219   */\n      dup3\n        /* \"#utility.yul\":3209:3228   */\n      mstore\n        /* \"#utility.yul\":3261:3265   */\n      0x20\n        /* \"#utility.yul\":3256:3259   */\n      dup3\n        /* \"#utility.yul\":3252:3266   */\n      add\n        /* \"#utility.yul\":3237:3266   */\n      swap1\n      pop\n        /* \"#utility.yul\":3103:3272   */\n      swap3\n      swap2\n      pop\n      pop\n      jump\t// out\n        /* \"#utility.yul\":3278:3585   */\n    tag_114:\n        /* \"#utility.yul\":3346:3347   */\n      0x00\n        /* \"#utility.yul\":3356:3469   */\n    tag_175:\n        /* \"#utility.yul\":3370:3376   */\n      dup4\n        /* \"#utility.yul\":3367:3368   */\n      dup2\n        /* \"#utility.yul\":3364:3377   */\n      lt\n        /* \"#utility.yul\":3356:3469   */\n      iszero\n      tag_177\n      jumpi\n        /* \"#utility.yul\":3455:3456   */\n      dup1\n        /* \"#utility.yul\":3450:3453   */\n      dup3\n        /* \"#utility.yul\":3446:3457   */\n      add\n        /* \"#utility.yul\":3440:3458   */\n      mload\n        /* \"#utility.yul\":3436:3437   */\n      dup2\n        /* \"#utility.yul\":3431:3434   */\n      dup5\n        /* \"#utility.yul\":3427:3438   */\n      add\n        /* \"#utility.yul\":3420:3459   */\n      mstore\n        /* \"#utility.yul\":3392:3394   */\n      0x20\n        /* \"#utility.yul\":3389:3390   */\n      dup2\n        /* \"#utility.yul\":3385:3395   */\n      add\n        /* \"#utility.yul\":3380:3395   */\n      swap1\n      pop\n        /* \"#utility.yul\":3356:3469   */\n      jump(tag_175)\n    tag_177:\n        /* \"#utility.yul\":3487:3493   */\n      dup4\n        /* \"#utility.yul\":3484:3485   */\n      dup2\n        /* \"#utility.yul\":3481:3494   */\n      gt\n        /* \"#utility.yul\":3478:3579   */\n      iszero\n      tag_178\n      jumpi\n        /* \"#utility.yul\":3567:3568   */\n      0x00\n        /* \"#utility.yul\":3558:3564   */\n      dup5\n        /* \"#utility.yul\":3553:3556   */\n      dup5\n        /* \"#utility.yul\":3549:3565   */\n      add\n        /* \"#utility.yul\":3542:3569   */\n      mstore\n        /* \"#utility.yul\":3478:3579   */\n    tag_178:\n        /* \"#utility.yul\":3327:3585   */\n      pop\n        /* \"#utility.yul\":3278:3585   */\n      pop\n      pop\n      pop\n      jump\t// out\n        /* \"#utility.yul\":3591:3693   */\n    tag_115:\n        /* \"#utility.yul\":3632:3638   */\n      0x00\n        /* \"#utility.yul\":3683:3685   */\n      0x1f\n        /* \"#utility.yul\":3679:3686   */\n      not\n        /* \"#utility.yul\":3674:3676   */\n      0x1f\n        /* \"#utility.yul\":3667:3672   */\n      dup4\n        /* \"#utility.yul\":3663:3677   */\n      add\n        /* \"#utility.yul\":3659:3687   */\n      and\n        /* \"#utility.yul\":3649:3687   */\n      swap1\n      pop\n        /* \"#utility.yul\":3591:3693   */\n      swap2\n      swap1\n      pop\n      jump\t// out\n        /* \"#utility.yul\":3699:4063   */\n    tag_116:\n        /* \"#utility.yul\":3787:3790   */\n      0x00\n        /* \"#utility.yul\":3815:3854   */\n      tag_181\n        /* \"#utility.yul\":3848:3853   */\n      dup3\n        /* \"#utility.yul\":3815:3854   */\n      tag_112\n      jump\t// in\n    tag_181:\n        /* \"#utility.yul\":3870:3941   */\n      tag_182\n        /* \"#utility.yul\":3934:3940   */\n      dup2\n        /* \"#utility.yul\":3929:3932   */\n      dup6\n        /* \"#utility.yul\":3870:3941   */\n      tag_113\n      jump\t// in\n    tag_182:\n        /* \"#utility.yul\":3863:3941   */\n      swap4\n      pop\n        /* \"#utility.yul\":3950:4002   */\n      tag_183\n        /* \"#utility.yul\":3995:4001   */\n      dup2\n        /* \"#utility.yul\":3990:3993   */\n      dup6\n        /* \"#utility.yul\":3983:3987   */\n      0x20\n        /* \"#utility.yul\":3976:3981   */\n      dup7\n        /* \"#utility.yul\":3972:3988   */\n      add\n        /* \"#utility.yul\":3950:4002   */\n      tag_114\n      jump\t// in\n    tag_183:\n        /* \"#utility.yul\":4027:4056   */\n      tag_184\n        /* \"#utility.yul\":4049:4055   */\n      dup2\n        /* \"#utility.yul\":4027:4056   */\n      tag_115\n      jump\t// in\n    tag_184:\n        /* \"#utility.yul\":4022:4025   */\n      dup5\n        /* \"#utility.yul\":4018:4057   */\n      add\n        /* \"#utility.yul\":4011:4057   */\n      swap2\n      pop\n        /* \"#utility.yul\":3791:4063   */\n      pop\n        /* \"#utility.yul\":3699:4063   */\n      swap3\n      swap2\n      pop\n      pop\n      jump\t// out\n        /* \"#utility.yul\":4069:4173   */\n    tag_117:\n        /* \"#utility.yul\":4114:4121   */\n      0x00\n        /* \"#utility.yul\":4143:4167   */\n      tag_186\n        /* \"#utility.yul\":4161:4166   */\n      dup3\n        /* \"#utility.yul\":4143:4167   */\n      tag_104\n      jump\t// in\n    tag_186:\n        /* \"#utility.yul\":4132:4167   */\n      swap1\n      pop\n        /* \"#utility.yul\":4069:4173   */\n      swap2\n      swap1\n      pop\n      jump\t// out\n        /* \"#utility.yul\":4179:4321   */\n    tag_118:\n        /* \"#utility.yul\":4282:4314   */\n      tag_188\n        /* \"#utility.yul\":4308:4313   */\n      dup2\n        /* \"#utility.yul\":4282:4314   */\n      tag_117\n      jump\t// in\n    tag_188:\n        /* \"#utility.yul\":4277:4280   */\n      dup3\n        /* \"#utility.yul\":4270:4315   */\n      mstore\n        /* \"#utility.yul\":4179:4321   */\n      pop\n      pop\n      jump\t// out\n        /* \"#utility.yul\":4327:5102   */\n    tag_39:\n        /* \"#utility.yul\":4562:4566   */\n      0x00\n        /* \"#utility.yul\":4600:4603   */\n      0xa0\n        /* \"#utility.yul\":4589:4598   */\n      dup3\n        /* \"#utility.yul\":4585:4604   */\n      add\n        /* \"#utility.yul\":4577:4604   */\n      swap1\n      pop\n        /* \"#utility.yul\":4650:4659   */\n      dup2\n        /* \"#utility.yul\":4644:4648   */\n      dup2\n        /* \"#utility.yul\":4640:4660   */\n      sub\n        /* \"#utility.yul\":4636:4637   */\n      0x00\n        /* \"#utility.yul\":4625:4634   */\n      dup4\n        /* \"#utility.yul\":4621:4638   */\n      add\n        /* \"#utility.yul\":4614:4661   */\n      mstore\n        /* \"#utility.yul\":4678:4756   */\n      tag_190\n        /* \"#utility.yul\":4751:4755   */\n      dup2\n        /* \"#utility.yul\":4742:4748   */\n      dup9\n        /* \"#utility.yul\":4678:4756   */\n      tag_116\n      jump\t// in\n    tag_190:\n        /* \"#utility.yul\":4670:4756   */\n      swap1\n      pop\n        /* \"#utility.yul\":4766:4838   */\n      tag_191\n        /* \"#utility.yul\":4834:4836   */\n      0x20\n        /* \"#utility.yul\":4823:4832   */\n      dup4\n        /* \"#utility.yul\":4819:4837   */\n      add\n        /* \"#utility.yul\":4810:4816   */\n      dup8\n        /* \"#utility.yul\":4766:4838   */\n      tag_111\n      jump\t// in\n    tag_191:\n        /* \"#utility.yul\":4848:4936   */\n      tag_192\n        /* \"#utility.yul\":4932:4934   */\n      0x40\n        /* \"#utility.yul\":4921:4930   */\n      dup4\n        /* \"#utility.yul\":4917:4935   */\n      add\n        /* \"#utility.yul\":4908:4914   */\n      dup7\n        /* \"#utility.yul\":4848:4936   */\n      tag_118\n      jump\t// in\n    tag_192:\n        /* \"#utility.yul\":4946:5012   */\n      tag_193\n        /* \"#utility.yul\":5008:5010   */\n      0x60\n        /* \"#utility.yul\":4997:5006   */\n      dup4\n        /* \"#utility.yul\":4993:5011   */\n      add\n        /* \"#utility.yul\":4984:4990   */\n      dup6\n        /* \"#utility.yul\":4946:5012   */\n      tag_109\n      jump\t// in\n    tag_193:\n        /* \"#utility.yul\":5022:5095   */\n      tag_194\n        /* \"#utility.yul\":5090:5093   */\n      0x80\n        /* \"#utility.yul\":5079:5088   */\n      dup4\n        /* \"#utility.yul\":5075:5094   */\n      add\n        /* \"#utility.yul\":5066:5072   */\n      dup5\n        /* \"#utility.yul\":5022:5095   */\n      tag_111\n      jump\t// in\n    tag_194:\n        /* \"#utility.yul\":4327:5102   */\n      swap7\n      swap6\n      pop\n      pop\n      pop\n      pop\n      pop\n      pop\n      jump\t// out\n        /* \"#utility.yul\":5108:5225   */\n    tag_119:\n        /* \"#utility.yul\":5217:5218   */\n      0x00\n        /* \"#utility.yul\":5214:5215   */\n      dup1\n        /* \"#utility.yul\":5207:5219   */\n      revert\n        /* \"#utility.yul\":5231:5348   */\n    tag_120:\n        /* \"#utility.yul\":5340:5341   */\n      0x00\n        /* \"#utility.yul\":5337:5338   */\n      dup1\n        /* \"#utility.yul\":5330:5342   */\n      revert\n        /* \"#utility.yul\":5354:5534   */\n    tag_121:\n        /* \"#utility.yul\":5402:5479   */\n      0x4e487b7100000000000000000000000000000000000000000000000000000000\n        /* \"#utility.yul\":5399:5400   */\n      0x00\n        /* \"#utility.yul\":5392:5480   */\n      mstore\n        /* \"#utility.yul\":5499:5503   */\n      0x41\n        /* \"#utility.yul\":5496:5497   */\n      0x04\n        /* \"#utility.yul\":5489:5504   */\n      mstore\n        /* \"#utility.yul\":5523:5527   */\n      0x24\n        /* \"#utility.yul\":5520:5521   */\n      0x00\n        /* \"#utility.yul\":5513:5528   */\n      revert\n        /* \"#utility.yul\":5540:5821   */\n    tag_122:\n        /* \"#utility.yul\":5623:5650   */\n      tag_199\n        /* \"#utility.yul\":5645:5649   */\n      dup3\n        /* \"#utility.yul\":5623:5650   */\n      tag_115\n      jump\t// in\n    tag_199:\n        /* \"#utility.yul\":5615:5621   */\n      dup2\n        /* \"#utility.yul\":5611:5651   */\n      add\n        /* \"#utility.yul\":5753:5759   */\n      dup2\n        /* \"#utility.yul\":5741:5751   */\n      dup2\n        /* \"#utility.yul\":5738:5760   */\n      lt\n        /* \"#utility.yul\":5717:5735   */\n      0xffffffffffffffff\n        /* \"#utility.yul\":5705:5715   */\n      dup3\n        /* \"#utility.yul\":5702:5736   */\n      gt\n        /* \"#utility.yul\":5699:5761   */\n      or\n        /* \"#utility.yul\":5696:5784   */\n      iszero\n      tag_200\n      jumpi\n        /* \"#utility.yul\":5764:5782   */\n      tag_201\n      tag_121\n      jump\t// in\n    tag_201:\n        /* \"#utility.yul\":5696:5784   */\n    tag_200:\n        /* \"#utility.yul\":5804:5814   */\n      dup1\n        /* \"#utility.yul\":5800:5802   */\n      0x40\n        /* \"#utility.yul\":5793:5815   */\n      mstore\n        /* \"#utility.yul\":5583:5821   */\n      pop\n        /* \"#utility.yul\":5540:5821   */\n      pop\n      pop\n      jump\t// out\n        /* \"#utility.yul\":5827:5956   */\n    tag_123:\n        /* \"#utility.yul\":5861:5867   */\n      0x00\n        /* \"#utility.yul\":5888:5908   */\n      tag_203\n      tag_98\n      jump\t// in\n    tag_203:\n        /* \"#utility.yul\":5878:5908   */\n      swap1\n      pop\n        /* \"#utility.yul\":5917:5950   */\n      tag_204\n        /* \"#utility.yul\":5945:5949   */\n      dup3\n        /* \"#utility.yul\":5937:5943   */\n      dup3\n        /* \"#utility.yul\":5917:5950   */\n      tag_122\n      jump\t// in\n    tag_204:\n        /* \"#utility.yul\":5827:5956   */\n      swap2\n      swap1\n      pop\n      jump\t// out\n        /* \"#utility.yul\":5962:6270   */\n    tag_124:\n        /* \"#utility.yul\":6024:6028   */\n      0x00\n        /* \"#utility.yul\":6114:6132   */\n      0xffffffffffffffff\n        /* \"#utility.yul\":6106:6112   */\n      dup3\n        /* \"#utility.yul\":6103:6133   */\n      gt\n        /* \"#utility.yul\":6100:6156   */\n      iszero\n      tag_206\n      jumpi\n        /* \"#utility.yul\":6136:6154   */\n      tag_207\n      tag_121\n      jump\t// in\n    tag_207:\n        /* \"#utility.yul\":6100:6156   */\n    tag_206:\n        /* \"#utility.yul\":6174:6203   */\n      tag_208\n        /* \"#utility.yul\":6196:6202   */\n      dup3\n        /* \"#utility.yul\":6174:6203   */\n      tag_115\n      jump\t// in\n    tag_208:\n        /* \"#utility.yul\":6166:6203   */\n      swap1\n      pop\n        /* \"#utility.yul\":6258:6262   */\n      0x20\n        /* \"#utility.yul\":6252:6256   */\n      dup2\n        /* \"#utility.yul\":6248:6263   */\n      add\n        /* \"#utility.yul\":6240:6263   */\n      swap1\n      pop\n        /* \"#utility.yul\":5962:6270   */\n      swap2\n      swap1\n      pop\n      jump\t// out\n        /* \"#utility.yul\":6276:6430   */\n    tag_125:\n        /* \"#utility.yul\":6360:6366   */\n      dup3\n        /* \"#utility.yul\":6355:6358   */\n      dup2\n        /* \"#utility.yul\":6350:6353   */\n      dup4\n        /* \"#utility.yul\":6337:6367   */\n      calldatacopy\n        /* \"#utility.yul\":6422:6423   */\n      0x00\n        /* \"#utility.yul\":6413:6419   */\n      dup4\n        /* \"#utility.yul\":6408:6411   */\n      dup4\n        /* \"#utility.yul\":6404:6420   */\n      add\n        /* \"#utility.yul\":6397:6424   */\n      mstore\n        /* \"#utility.yul\":6276:6430   */\n      pop\n      pop\n      pop\n      jump\t// out\n        /* \"#utility.yul\":6436:6848   */\n    tag_126:\n        /* \"#utility.yul\":6514:6519   */\n      0x00\n        /* \"#utility.yul\":6539:6605   */\n      tag_211\n        /* \"#utility.yul\":6555:6604   */\n      tag_212\n        /* \"#utility.yul\":6597:6603   */\n      dup5\n        /* \"#utility.yul\":6555:6604   */\n      tag_124\n      jump\t// in\n    tag_212:\n        /* \"#utility.yul\":6539:6605   */\n      tag_123\n      jump\t// in\n    tag_211:\n        /* \"#utility.yul\":6530:6605   */\n      swap1\n      pop\n        /* \"#utility.yul\":6628:6634   */\n      dup3\n        /* \"#utility.yul\":6621:6626   */\n      dup2\n        /* \"#utility.yul\":6614:6635   */\n      mstore\n        /* \"#utility.yul\":6666:6670   */\n      0x20\n        /* \"#utility.yul\":6659:6664   */\n      dup2\n        /* \"#utility.yul\":6655:6671   */\n      add\n        /* \"#utility.yul\":6704:6707   */\n      dup5\n        /* \"#utility.yul\":6695:6701   */\n      dup5\n        /* \"#utility.yul\":6690:6693   */\n      dup5\n        /* \"#utility.yul\":6686:6702   */\n      add\n        /* \"#utility.yul\":6683:6708   */\n      gt\n        /* \"#utility.yul\":6680:6792   */\n      iszero\n      tag_213\n      jumpi\n        /* \"#utility.yul\":6711:6790   */\n      tag_214\n      tag_120\n      jump\t// in\n    tag_214:\n        /* \"#utility.yul\":6680:6792   */\n    tag_213:\n        /* \"#utility.yul\":6801:6842   */\n      tag_215\n        /* \"#utility.yul\":6835:6841   */\n      dup5\n        /* \"#utility.yul\":6830:6833   */\n      dup3\n        /* \"#utility.yul\":6825:6828   */\n      dup6\n        /* \"#utility.yul\":6801:6842   */\n      tag_125\n      jump\t// in\n    tag_215:\n        /* \"#utility.yul\":6520:6848   */\n      pop\n        /* \"#utility.yul\":6436:6848   */\n      swap4\n      swap3\n      pop\n      pop\n      pop\n      jump\t// out\n        /* \"#utility.yul\":6868:7208   */\n    tag_127:\n        /* \"#utility.yul\":6924:6929   */\n      0x00\n        /* \"#utility.yul\":6973:6976   */\n      dup3\n        /* \"#utility.yul\":6966:6970   */\n      0x1f\n        /* \"#utility.yul\":6958:6964   */\n      dup4\n        /* \"#utility.yul\":6954:6971   */\n      add\n        /* \"#utility.yul\":6950:6977   */\n      slt\n        /* \"#utility.yul\":6940:7062   */\n      tag_217\n      jumpi\n        /* \"#utility.yul\":6981:7060   */\n      tag_218\n      tag_119\n      jump\t// in\n    tag_218:\n        /* \"#utility.yul\":6940:7062   */\n    tag_217:\n        /* \"#utility.yul\":7098:7104   */\n      dup2\n        /* \"#utility.yul\":7085:7105   */\n      calldataload\n        /* \"#utility.yul\":7123:7202   */\n      tag_219\n        /* \"#utility.yul\":7198:7201   */\n      dup5\n        /* \"#utility.yul\":7190:7196   */\n      dup3\n        /* \"#utility.yul\":7183:7187   */\n      0x20\n        /* \"#utility.yul\":7175:7181   */\n      dup7\n        /* \"#utility.yul\":7171:7188   */\n      add\n        /* \"#utility.yul\":7123:7202   */\n      tag_126\n      jump\t// in\n    tag_219:\n        /* \"#utility.yul\":7114:7202   */\n      swap2\n      pop\n        /* \"#utility.yul\":6930:7208   */\n      pop\n        /* \"#utility.yul\":6868:7208   */\n      swap3\n      swap2\n      pop\n      pop\n      jump\t// out\n        /* \"#utility.yul\":7214:7352   */\n    tag_128:\n        /* \"#utility.yul\":7295:7327   */\n      tag_221\n        /* \"#utility.yul\":7321:7326   */\n      dup2\n        /* \"#utility.yul\":7295:7327   */\n      tag_117\n      jump\t// in\n    tag_221:\n        /* \"#utility.yul\":7288:7293   */\n      dup2\n        /* \"#utility.yul\":7285:7328   */\n      eq\n        /* \"#utility.yul\":7275:7346   */\n      tag_222\n      jumpi\n        /* \"#utility.yul\":7342:7343   */\n      0x00\n        /* \"#utility.yul\":7339:7340   */\n      dup1\n        /* \"#utility.yul\":7332:7344   */\n      revert\n        /* \"#utility.yul\":7275:7346   */\n    tag_222:\n        /* \"#utility.yul\":7214:7352   */\n      pop\n      jump\t// out\n        /* \"#utility.yul\":7358:7513   */\n    tag_129:\n        /* \"#utility.yul\":7412:7417   */\n      0x00\n        /* \"#utility.yul\":7450:7456   */\n      dup2\n        /* \"#utility.yul\":7437:7457   */\n      calldataload\n        /* \"#utility.yul\":7428:7457   */\n      swap1\n      pop\n        /* \"#utility.yul\":7466:7507   */\n      tag_224\n        /* \"#utility.yul\":7501:7506   */\n      dup2\n        /* \"#utility.yul\":7466:7507   */\n      tag_128\n      jump\t// in\n    tag_224:\n        /* \"#utility.yul\":7358:7513   */\n      swap3\n      swap2\n      pop\n      pop\n      jump\t// out\n        /* \"#utility.yul\":7519:8334   */\n    tag_43:\n        /* \"#utility.yul\":7614:7620   */\n      0x00\n        /* \"#utility.yul\":7622:7628   */\n      dup1\n        /* \"#utility.yul\":7630:7636   */\n      0x00\n        /* \"#utility.yul\":7679:7681   */\n      0x60\n        /* \"#utility.yul\":7667:7676   */\n      dup5\n        /* \"#utility.yul\":7658:7665   */\n      dup7\n        /* \"#utility.yul\":7654:7677   */\n      sub\n        /* \"#utility.yul\":7650:7682   */\n      slt\n        /* \"#utility.yul\":7647:7766   */\n      iszero\n      tag_226\n      jumpi\n        /* \"#utility.yul\":7685:7764   */\n      tag_227\n      tag_99\n      jump\t// in\n    tag_227:\n        /* \"#utility.yul\":7647:7766   */\n    tag_226:\n        /* \"#utility.yul\":7833:7834   */\n      0x00\n        /* \"#utility.yul\":7822:7831   */\n      dup5\n        /* \"#utility.yul\":7818:7835   */\n      add\n        /* \"#utility.yul\":7805:7836   */\n      calldataload\n        /* \"#utility.yul\":7863:7881   */\n      0xffffffffffffffff\n        /* \"#utility.yul\":7855:7861   */\n      dup2\n        /* \"#utility.yul\":7852:7882   */\n      gt\n        /* \"#utility.yul\":7849:7966   */\n      iszero\n      tag_228\n      jumpi\n        /* \"#utility.yul\":7885:7964   */\n      tag_229\n      tag_100\n      jump\t// in\n    tag_229:\n        /* \"#utility.yul\":7849:7966   */\n    tag_228:\n        /* \"#utility.yul\":7990:8053   */\n      tag_230\n        /* \"#utility.yul\":8045:8052   */\n      dup7\n        /* \"#utility.yul\":8036:8042   */\n      dup3\n        /* \"#utility.yul\":8025:8034   */\n      dup8\n        /* \"#utility.yul\":8021:8043   */\n      add\n        /* \"#utility.yul\":7990:8053   */\n      tag_127\n      jump\t// in\n    tag_230:\n        /* \"#utility.yul\":7980:8053   */\n      swap4\n      pop\n        /* \"#utility.yul\":7776:8063   */\n      pop\n        /* \"#utility.yul\":8102:8104   */\n      0x20\n        /* \"#utility.yul\":8128:8181   */\n      tag_231\n        /* \"#utility.yul\":8173:8180   */\n      dup7\n        /* \"#utility.yul\":8164:8170   */\n      dup3\n        /* \"#utility.yul\":8153:8162   */\n      dup8\n        /* \"#utility.yul\":8149:8171   */\n      add\n        /* \"#utility.yul\":8128:8181   */\n      tag_103\n      jump\t// in\n    tag_231:\n        /* \"#utility.yul\":8118:8181   */\n      swap3\n      pop\n        /* \"#utility.yul\":8073:8191   */\n      pop\n        /* \"#utility.yul\":8230:8232   */\n      0x40\n        /* \"#utility.yul\":8256:8317   */\n      tag_232\n        /* \"#utility.yul\":8309:8316   */\n      dup7\n        /* \"#utility.yul\":8300:8306   */\n      dup3\n        /* \"#utility.yul\":8289:8298   */\n      dup8\n        /* \"#utility.yul\":8285:8307   */\n      add\n        /* \"#utility.yul\":8256:8317   */\n      tag_129\n      jump\t// in\n    tag_232:\n        /* \"#utility.yul\":8246:8317   */\n      swap2\n      pop\n        /* \"#utility.yul\":8201:8327   */\n      pop\n        /* \"#utility.yul\":7519:8334   */\n      swap3\n      pop\n      swap3\n      pop\n      swap3\n      jump\t// out\n        /* \"#utility.yul\":8340:8520   */\n    tag_130:\n        /* \"#utility.yul\":8388:8465   */\n      0x4e487b7100000000000000000000000000000000000000000000000000000000\n        /* \"#utility.yul\":8385:8386   */\n      0x00\n        /* \"#utility.yul\":8378:8466   */\n      mstore\n        /* \"#utility.yul\":8485:8489   */\n      0x12\n        /* \"#utility.yul\":8482:8483   */\n      0x04\n        /* \"#utility.yul\":8475:8490   */\n      mstore\n        /* \"#utility.yul\":8509:8513   */\n      0x24\n        /* \"#utility.yul\":8506:8507   */\n      0x00\n        /* \"#utility.yul\":8499:8514   */\n      revert\n        /* \"#utility.yul\":8526:8706   */\n    tag_131:\n        /* \"#utility.yul\":8574:8651   */\n      0x4e487b7100000000000000000000000000000000000000000000000000000000\n        /* \"#utility.yul\":8571:8572   */\n      0x00\n        /* \"#utility.yul\":8564:8652   */\n      mstore\n        /* \"#utility.yul\":8671:8675   */\n      0x11\n        /* \"#utility.yul\":8668:8669   */\n      0x04\n        /* \"#utility.yul\":8661:8676   */\n      mstore\n        /* \"#utility.yul\":8695:8699   */\n      0x24\n        /* \"#utility.yul\":8692:8693   */\n      0x00\n        /* \"#utility.yul\":8685:8700   */\n      revert\n        /* \"#utility.yul\":8712:8897   */\n    tag_64:\n        /* \"#utility.yul\":8752:8753   */\n      0x00\n        /* \"#utility.yul\":8769:8789   */\n      tag_236\n        /* \"#utility.yul\":8787:8788   */\n      dup3\n        /* \"#utility.yul\":8769:8789   */\n      tag_101\n      jump\t// in\n    tag_236:\n        /* \"#utility.yul\":8764:8789   */\n      swap2\n      pop\n        /* \"#utility.yul\":8803:8823   */\n      tag_237\n        /* \"#utility.yul\":8821:8822   */\n      dup4\n        /* \"#utility.yul\":8803:8823   */\n      tag_101\n      jump\t// in\n    tag_237:\n        /* \"#utility.yul\":8798:8823   */\n      swap3\n      pop\n        /* \"#utility.yul\":8842:8843   */\n      dup3\n        /* \"#utility.yul\":8832:8867   */\n      tag_238\n      jumpi\n        /* \"#utility.yul\":8847:8865   */\n      tag_239\n      tag_130\n      jump\t// in\n    tag_239:\n        /* \"#utility.yul\":8832:8867   */\n    tag_238:\n        /* \"#utility.yul\":8889:8890   */\n      dup3\n        /* \"#utility.yul\":8886:8887   */\n      dup3\n        /* \"#utility.yul\":8882:8891   */\n      div\n        /* \"#utility.yul\":8877:8891   */\n      swap1\n      pop\n        /* \"#utility.yul\":8712:8897   */\n      swap3\n      swap2\n      pop\n      pop\n      jump\t// out\n        /* \"#utility.yul\":8903:9083   */\n    tag_132:\n        /* \"#utility.yul\":8951:9028   */\n      0x4e487b7100000000000000000000000000000000000000000000000000000000\n        /* \"#utility.yul\":8948:8949   */\n      0x00\n        /* \"#utility.yul\":8941:9029   */\n      mstore\n        /* \"#utility.yul\":9048:9052   */\n      0x22\n        /* \"#utility.yul\":9045:9046   */\n      0x04\n        /* \"#utility.yul\":9038:9053   */\n      mstore\n        /* \"#utility.yul\":9072:9076   */\n      0x24\n        /* \"#utility.yul\":9069:9070   */\n      0x00\n        /* \"#utility.yul\":9062:9077   */\n      revert\n        /* \"#utility.yul\":9089:9409   */\n    tag_69:\n        /* \"#utility.yul\":9133:9139   */\n      0x00\n        /* \"#utility.yul\":9170:9171   */\n      0x02\n        /* \"#utility.yul\":9164:9168   */\n      dup3\n        /* \"#utility.yul\":9160:9172   */\n      div\n        /* \"#utility.yul\":9150:9172   */\n      swap1\n      pop\n        /* \"#utility.yul\":9217:9218   */\n      0x01\n        /* \"#utility.yul\":9211:9215   */\n      dup3\n        /* \"#utility.yul\":9207:9219   */\n      and\n        /* \"#utility.yul\":9238:9256   */\n      dup1\n        /* \"#utility.yul\":9228:9309   */\n      tag_242\n      jumpi\n        /* \"#utility.yul\":9294:9298   */\n      0x7f\n        /* \"#utility.yul\":9286:9292   */\n      dup3\n        /* \"#utility.yul\":9282:9299   */\n      and\n        /* \"#utility.yul\":9272:9299   */\n      swap2\n      pop\n        /* \"#utility.yul\":9228:9309   */\n    tag_242:\n        /* \"#utility.yul\":9356:9358   */\n      0x20\n        /* \"#utility.yul\":9348:9354   */\n      dup3\n        /* \"#utility.yul\":9345:9359   */\n      lt\n        /* \"#utility.yul\":9325:9343   */\n      dup2\n        /* \"#utility.yul\":9322:9360   */\n      eq\n        /* \"#utility.yul\":9319:9403   */\n      iszero\n      tag_243\n      jumpi\n        /* \"#utility.yul\":9375:9393   */\n      tag_244\n      tag_132\n      jump\t// in\n    tag_244:\n        /* \"#utility.yul\":9319:9403   */\n    tag_243:\n        /* \"#utility.yul\":9140:9409   */\n      pop\n        /* \"#utility.yul\":9089:9409   */\n      swap2\n      swap1\n      pop\n      jump\t// out\n        /* \"#utility.yul\":9415:9648   */\n    tag_78:\n        /* \"#utility.yul\":9454:9457   */\n      0x00\n        /* \"#utility.yul\":9477:9501   */\n      tag_246\n        /* \"#utility.yul\":9495:9500   */\n      dup3\n        /* \"#utility.yul\":9477:9501   */\n      tag_101\n      jump\t// in\n    tag_246:\n        /* \"#utility.yul\":9468:9501   */\n      swap2\n      pop\n        /* \"#utility.yul\":9523:9589   */\n      0xffffffffffffffffffffffffffffffffffffffffffffffffffffffffffffffff\n        /* \"#utility.yul\":9516:9521   */\n      dup3\n        /* \"#utility.yul\":9513:9590   */\n      eq\n        /* \"#utility.yul\":9510:9613   */\n      iszero\n      tag_247\n      jumpi\n        /* \"#utility.yul\":9593:9611   */\n      tag_248\n      tag_131\n      jump\t// in\n    tag_248:\n        /* \"#utility.yul\":9510:9613   */\n    tag_247:\n        /* \"#utility.yul\":9640:9641   */\n      0x01\n        /* \"#utility.yul\":9633:9638   */\n      dup3\n        /* \"#utility.yul\":9629:9642   */\n      add\n        /* \"#utility.yul\":9622:9642   */\n      swap1\n      pop\n        /* \"#utility.yul\":9415:9648   */\n      swap2\n      swap1\n      pop\n      jump\t// out\n\n    auxdata: 0xa26469706673582212205524133e363b1bcaa8e070471b5225ce0e33ca53f7b9fec572ab4a95f3f1b80064736f6c63430008090033\n}\n","bytecode":{"linkReferences":{},"object":"60806040523480156200001157600080fd5b5060405162000f8b38038062000f8b83398181016040528101906200003791906200012b565b81600381905550806000806101000a81548173ffffffffffffffffffffffffffffffffffffffff021916908373ffffffffffffffffffffffffffffffffffffffff160217905550505062000172565b600080fd5b6000819050919050565b620000a0816200008b565b8114620000ac57600080fd5b50565b600081519050620000c08162000095565b92915050565b600073ffffffffffffffffffffffffffffffffffffffff82169050919050565b6000620000f382620000c6565b9050919050565b6200010581620000e6565b81146200011157600080fd5b50565b6000815190506200012581620000fa565b92915050565b6000806040838503121562000145576200014462000086565b5b60006200015585828601620000af565b9250506020620001688582860162000114565b9150509250929050565b610e0980620001826000396000f3fe6080604052600436106100915760003560e01c80638a9cfd55116100595780638a9cfd5514610186578063937e09b1146101af5780639fb42b1f146101da578063d7bb99ba14610205578063d7d1bbdb1461020f57610091565b806303441006146100965780630a144391146100b2578063481c6a75146100ef5780636345cb081461011a57806381d12c5814610145575b600080fd5b6100b060048036038101906100ab9190610874565b610238565b005b3480156100be57600080fd5b506100d960048036038101906100d491906108ff565b610371565b6040516100e69190610947565b60405180910390f35b3480156100fb57600080fd5b50610104610391565b6040516101119190610971565b60405180910390f35b34801561012657600080fd5b5061012f6103b5565b60405161013c919061099b565b60405180910390f35b34801561015157600080fd5b5061016c60048036038101906101679190610874565b6103bb565b60405161017d959493929190610a70565b60405180910390f35b34801561019257600080fd5b506101ad60048036038101906101a89190610c2b565b6104a6565b005b3480156101bb57600080fd5b506101c46105bd565b6040516101d1919061099b565b60405180910390f35b3480156101e657600080fd5b506101ef6105c3565b6040516101fc919061099b565b60405180910390f35b61020d6105c9565b005b34801561021b57600080fd5b5061023660048036038101906102319190610874565b610649565b005b60008054906101000a900473ffffffffffffffffffffffffffffffffffffffff1673ffffffffffffffffffffffffffffffffffffffff163373ffffffffffffffffffffffffffffffffffffffff161461029057600080fd5b60006005600083815260200190815260200160002090508060020160149054906101000a900460ff16156102c357600080fd5b60026001546102d29190610cf8565b8160040154116102e157600080fd5b8060020160009054906101000a900473ffffffffffffffffffffffffffffffffffffffff1673ffffffffffffffffffffffffffffffffffffffff166108fc82600101549081150290604051600060405180830381858888f1935050505015801561034f573d6000803e3d6000fd5b5060018160020160146101000a81548160ff0219169083151502179055505050565b60026020528060005260406000206000915054906101000a900460ff1681565b60008054906101000a900473ffffffffffffffffffffffffffffffffffffffff1681565b60015481565b60056020528060005260406000206000915090508060000180546103de90610d58565b80601f016020809104026020016040519081016040528092919081815260200182805461040a90610d58565b80156104575780601f1061042c57610100808354040283529160200191610457565b820191906000526020600020905b81548152906001019060200180831161043a57829003601f168201915b5050505050908060010154908060020160009054906101000a900473ffffffffffffffffffffffffffffffffffffffff16908060020160149054906101000a900460ff16908060040154905085565b60008054906101000a900473ffffffffffffffffffffffffffffffffffffffff1673ffffffffffffffffffffffffffffffffffffffff163373ffffffffffffffffffffffffffffffffffffffff16146104fe57600080fd5b6000600560006004600081548092919061051790610d8a565b919050558152602001908152602001600020905083816000019080519060200190610543929190610787565b50828160010181905550818160020160006101000a81548173ffffffffffffffffffffffffffffffffffffffff021916908373ffffffffffffffffffffffffffffffffffffffff16021790555060008160020160146101000a81548160ff0219169083151502179055506000816004018190555050505050565b60035481565b60045481565b60035434116105d757600080fd5b6001600260003373ffffffffffffffffffffffffffffffffffffffff1673ffffffffffffffffffffffffffffffffffffffff16815260200190815260200160002060006101000a81548160ff0219169083151502179055506004600081548092919061064290610d8a565b9190505550565b6000600560008381526020019081526020016000209050600260003373ffffffffffffffffffffffffffffffffffffffff1673ffffffffffffffffffffffffffffffffffffffff16815260200190815260200160002060009054906101000a900460ff166106b657600080fd5b8060030160003373ffffffffffffffffffffffffffffffffffffffff1673ffffffffffffffffffffffffffffffffffffffff16815260200190815260200160002060009054906101000a900460ff161561070f57600080fd5b80600401600081548092919061072490610d8a565b919050555060018160030160003373ffffffffffffffffffffffffffffffffffffffff1673ffffffffffffffffffffffffffffffffffffffff16815260200190815260200160002060006101000a81548160ff0219169083151502179055505050565b82805461079390610d58565b90600052602060002090601f0160209004810192826107b557600085556107fc565b82601f106107ce57805160ff19168380011785556107fc565b828001600101855582156107fc579182015b828111156107fb5782518255916020019190600101906107e0565b5b509050610809919061080d565b5090565b5b8082111561082657600081600090555060010161080e565b5090565b6000604051905090565b600080fd5b600080fd5b6000819050919050565b6108518161083e565b811461085c57600080fd5b50565b60008135905061086e81610848565b92915050565b60006020828403121561088a57610889610834565b5b60006108988482850161085f565b91505092915050565b600073ffffffffffffffffffffffffffffffffffffffff82169050919050565b60006108cc826108a1565b9050919050565b6108dc816108c1565b81146108e757600080fd5b50565b6000813590506108f9816108d3565b92915050565b60006020828403121561091557610914610834565b5b6000610923848285016108ea565b91505092915050565b60008115159050919050565b6109418161092c565b82525050565b600060208201905061095c6000830184610938565b92915050565b61096b816108c1565b82525050565b60006020820190506109866000830184610962565b92915050565b6109958161083e565b82525050565b60006020820190506109b0600083018461098c565b92915050565b600081519050919050565b600082825260208201905092915050565b60005b838110156109f05780820151818401526020810190506109d5565b838111156109ff576000848401525b50505050565b6000601f19601f8301169050919050565b6000610a21826109b6565b610a2b81856109c1565b9350610a3b8185602086016109d2565b610a4481610a05565b840191505092915050565b6000610a5a826108a1565b9050919050565b610a6a81610a4f565b82525050565b600060a0820190508181036000830152610a8a8188610a16565b9050610a99602083018761098c565b610aa66040830186610a61565b610ab36060830185610938565b610ac0608083018461098c565b9695505050505050565b600080fd5b600080fd5b7f4e487b7100000000000000000000000000000000000000000000000000000000600052604160045260246000fd5b610b0c82610a05565b810181811067ffffffffffffffff82111715610b2b57610b2a610ad4565b5b80604052505050565b6000610b3e61082a565b9050610b4a8282610b03565b919050565b600067ffffffffffffffff821115610b6a57610b69610ad4565b5b610b7382610a05565b9050602081019050919050565b82818337600083830152505050565b6000610ba2610b9d84610b4f565b610b34565b905082815260208101848484011115610bbe57610bbd610acf565b5b610bc9848285610b80565b509392505050565b600082601f830112610be657610be5610aca565b5b8135610bf6848260208601610b8f565b91505092915050565b610c0881610a4f565b8114610c1357600080fd5b50565b600081359050610c2581610bff565b92915050565b600080600060608486031215610c4457610c43610834565b5b600084013567ffffffffffffffff811115610c6257610c61610839565b5b610c6e86828701610bd1565b9350506020610c7f8682870161085f565b9250506040610c9086828701610c16565b9150509250925092565b7f4e487b7100000000000000000000000000000000000000000000000000000000600052601260045260246000fd5b7f4e487b7100000000000000000000000000000000000000000000000000000000600052601160045260246000fd5b6000610d038261083e565b9150610d0e8361083e565b925082610d1e57610d1d610c9a565b5b828204905092915050565b7f4e487b7100000000000000000000000000000000000000000000000000000000600052602260045260246000fd5b60006002820490506001821680610d7057607f821691505b60208210811415610d8457610d83610d29565b5b50919050565b6000610d958261083e565b91507fffffffffffffffffffffffffffffffffffffffffffffffffffffffffffffffff821415610dc857610dc7610cc9565b5b60018201905091905056fea26469706673582212205524133e363b1bcaa8e070471b5225ce0e33ca53f7b9fec572ab4a95f3f1b80064736f6c63430008090033","opcodes":"PUSH1 0x80 PUSH1 0x40 MSTORE CALLVALUE DUP1 ISZERO PUSH3 0x11 JUMPI PUSH1 0x0 DUP1 REVERT JUMPDEST POP PUSH1 0x40 MLOAD PUSH3 0xF8B CODESIZE SUB DUP1 PUSH3 0xF8B DUP4 CODECOPY DUP2 DUP2 ADD PUSH1 0x40 MSTORE DUP2 ADD SWAP1 PUSH3 0x37 SWAP2 SWAP1 PUSH3 0x12B JUMP JUMPDEST DUP2 PUSH1 0x3 DUP2 SWAP1 SSTORE POP DUP1 PUSH1 0x0 DUP1 PUSH2 0x100 EXP DUP2 SLOAD DUP2 PUSH20 0xFFFFFFFFFFFFFFFFFFFFFFFFFFFFFFFFFFFFFFFF MUL NOT AND SWAP1 DUP4 PUSH20 0xFFFFFFFFFFFFFFFFFFFFFFFFFFFFFFFFFFFFFFFF AND MUL OR SWAP1 SSTORE POP POP POP PUSH3 0x172 JUMP JUMPDEST PUSH1 0x0 DUP1 REVERT JUMPDEST PUSH1 0x0 DUP2 SWAP1 POP SWAP2 SWAP1 POP JUMP JUMPDEST PUSH3 0xA0 DUP2 PUSH3 0x8B JUMP JUMPDEST DUP2 EQ PUSH3 0xAC JUMPI PUSH1 0x0 DUP1 REVERT JUMPDEST POP JUMP JUMPDEST PUSH1 0x0 DUP2 MLOAD SWAP1 POP PUSH3 0xC0 DUP2 PUSH3 0x95 JUMP JUMPDEST SWAP3 SWAP2 POP POP JUMP JUMPDEST PUSH1 0x0 PUSH20 0xFFFFFFFFFFFFFFFFFFFFFFFFFFFFFFFFFFFFFFFF DUP3 AND SWAP1 POP SWAP2 SWAP1 POP JUMP JUMPDEST PUSH1 0x0 PUSH3 0xF3 DUP3 PUSH3 0xC6 JUMP JUMPDEST SWAP1 POP SWAP2 SWAP1 POP JUMP JUMPDEST PUSH3 0x105 DUP2 PUSH3 0xE6 JUMP JUMPDEST DUP2 EQ PUSH3 0x111 JUMPI PUSH1 0x0 DUP1 REVERT JUMPDEST POP JUMP JUMPDEST PUSH1 0x0 DUP2 MLOAD SWAP1 POP PUSH3 0x125 DUP2 PUSH3 0xFA JUMP JUMPDEST SWAP3 SWAP2 POP POP JUMP JUMPDEST PUSH1 0x0 DUP1 PUSH1 0x40 DUP4 DUP6 SUB SLT ISZERO PUSH3 0x145 JUMPI PUSH3 0x144 PUSH3 0x86 JUMP JUMPDEST JUMPDEST PUSH1 0x0 PUSH3 0x155 DUP6 DUP3 DUP7 ADD PUSH3 0xAF JUMP JUMPDEST SWAP3 POP POP PUSH1 0x20 PUSH3 0x168 DUP6 DUP3 DUP7 ADD PUSH3 0x114 JUMP JUMPDEST SWAP2 POP POP SWAP3 POP SWAP3 SWAP1 POP JUMP JUMPDEST PUSH2 0xE09 DUP1 PUSH3 0x182 PUSH1 0x0 CODECOPY PUSH1 0x0 RETURN INVALID PUSH1 0x80 PUSH1 0x40 MSTORE PUSH1 0x4 CALLDATASIZE LT PUSH2 0x91 JUMPI PUSH1 0x0 CALLDATALOAD PUSH1 0xE0 SHR DUP1 PUSH4 0x8A9CFD55 GT PUSH2 0x59 JUMPI DUP1 PUSH4 0x8A9CFD55 EQ PUSH2 0x186 JUMPI DUP1 PUSH4 0x937E09B1 EQ PUSH2 0x1AF JUMPI DUP1 PUSH4 0x9FB42B1F EQ PUSH2 0x1DA JUMPI DUP1 PUSH4 0xD7BB99BA EQ PUSH2 0x205 JUMPI DUP1 PUSH4 0xD7D1BBDB EQ PUSH2 0x20F JUMPI PUSH2 0x91 JUMP JUMPDEST DUP1 PUSH4 0x3441006 EQ PUSH2 0x96 JUMPI DUP1 PUSH4 0xA144391 EQ PUSH2 0xB2 JUMPI DUP1 PUSH4 0x481C6A75 EQ PUSH2 0xEF JUMPI DUP1 PUSH4 0x6345CB08 EQ PUSH2 0x11A JUMPI DUP1 PUSH4 0x81D12C58 EQ PUSH2 0x145 JUMPI JUMPDEST PUSH1 0x0 DUP1 REVERT JUMPDEST PUSH2 0xB0 PUSH1 0x4 DUP1 CALLDATASIZE SUB DUP2 ADD SWAP1 PUSH2 0xAB SWAP2 SWAP1 PUSH2 0x874 JUMP JUMPDEST PUSH2 0x238 JUMP JUMPDEST STOP JUMPDEST CALLVALUE DUP1 ISZERO PUSH2 0xBE JUMPI PUSH1 0x0 DUP1 REVERT JUMPDEST POP PUSH2 0xD9 PUSH1 0x4 DUP1 CALLDATASIZE SUB DUP2 ADD SWAP1 PUSH2 0xD4 SWAP2 SWAP1 PUSH2 0x8FF JUMP JUMPDEST PUSH2 0x371 JUMP JUMPDEST PUSH1 0x40 MLOAD PUSH2 0xE6 SWAP2 SWAP1 PUSH2 0x947 JUMP JUMPDEST PUSH1 0x40 MLOAD DUP1 SWAP2 SUB SWAP1 RETURN JUMPDEST CALLVALUE DUP1 ISZERO PUSH2 0xFB JUMPI PUSH1 0x0 DUP1 REVERT JUMPDEST POP PUSH2 0x104 PUSH2 0x391 JUMP JUMPDEST PUSH1 0x40 MLOAD PUSH2 0x111 SWAP2 SWAP1 PUSH2 0x971 JUMP JUMPDEST PUSH1 0x40 MLOAD DUP1 SWAP2 SUB SWAP1 RETURN JUMPDEST CALLVALUE DUP1 ISZERO PUSH2 0x126 JUMPI PUSH1 0x0 DUP1 REVERT JUMPDEST POP PUSH2 0x12F PUSH2 0x3B5 JUMP JUMPDEST PUSH1 0x40 MLOAD PUSH2 0x13C SWAP2 SWAP1 PUSH2 0x99B JUMP JUMPDEST PUSH1 0x40 MLOAD DUP1 SWAP2 SUB SWAP1 RETURN JUMPDEST CALLVALUE DUP1 ISZERO PUSH2 0x151 JUMPI PUSH1 0x0 DUP1 REVERT JUMPDEST POP PUSH2 0x16C PUSH1 0x4 DUP1 CALLDATASIZE SUB DUP2 ADD SWAP1 PUSH2 0x167 SWAP2 SWAP1 PUSH2 0x874 JUMP JUMPDEST PUSH2 0x3BB JUMP JUMPDEST PUSH1 0x40 MLOAD PUSH2 0x17D SWAP6 SWAP5 SWAP4 SWAP3 SWAP2 SWAP1 PUSH2 0xA70 JUMP JUMPDEST PUSH1 0x40 MLOAD DUP1 SWAP2 SUB SWAP1 RETURN JUMPDEST CALLVALUE DUP1 ISZERO PUSH2 0x192 JUMPI PUSH1 0x0 DUP1 REVERT JUMPDEST POP PUSH2 0x1AD PUSH1 0x4 DUP1 CALLDATASIZE SUB DUP2 ADD SWAP1 PUSH2 0x1A8 SWAP2 SWAP1 PUSH2 0xC2B JUMP JUMPDEST PUSH2 0x4A6 JUMP JUMPDEST STOP JUMPDEST CALLVALUE DUP1 ISZERO PUSH2 0x1BB JUMPI PUSH1 0x0 DUP1 REVERT JUMPDEST POP PUSH2 0x1C4 PUSH2 0x5BD JUMP JUMPDEST PUSH1 0x40 MLOAD PUSH2 0x1D1 SWAP2 SWAP1 PUSH2 0x99B JUMP JUMPDEST PUSH1 0x40 MLOAD DUP1 SWAP2 SUB SWAP1 RETURN JUMPDEST CALLVALUE DUP1 ISZERO PUSH2 0x1E6 JUMPI PUSH1 0x0 DUP1 REVERT JUMPDEST POP PUSH2 0x1EF PUSH2 0x5C3 JUMP JUMPDEST PUSH1 0x40 MLOAD PUSH2 0x1FC SWAP2 SWAP1 PUSH2 0x99B JUMP JUMPDEST PUSH1 0x40 MLOAD DUP1 SWAP2 SUB SWAP1 RETURN JUMPDEST PUSH2 0x20D PUSH2 0x5C9 JUMP JUMPDEST STOP JUMPDEST CALLVALUE DUP1 ISZERO PUSH2 0x21B JUMPI PUSH1 0x0 DUP1 REVERT JUMPDEST POP PUSH2 0x236 PUSH1 0x4 DUP1 CALLDATASIZE SUB DUP2 ADD SWAP1 PUSH2 0x231 SWAP2 SWAP1 PUSH2 0x874 JUMP JUMPDEST PUSH2 0x649 JUMP JUMPDEST STOP JUMPDEST PUSH1 0x0 DUP1 SLOAD SWAP1 PUSH2 0x100 EXP SWAP1 DIV PUSH20 0xFFFFFFFFFFFFFFFFFFFFFFFFFFFFFFFFFFFFFFFF AND PUSH20 0xFFFFFFFFFFFFFFFFFFFFFFFFFFFFFFFFFFFFFFFF AND CALLER PUSH20 0xFFFFFFFFFFFFFFFFFFFFFFFFFFFFFFFFFFFFFFFF AND EQ PUSH2 0x290 JUMPI PUSH1 0x0 DUP1 REVERT JUMPDEST PUSH1 0x0 PUSH1 0x5 PUSH1 0x0 DUP4 DUP2 MSTORE PUSH1 0x20 ADD SWAP1 DUP2 MSTORE PUSH1 0x20 ADD PUSH1 0x0 KECCAK256 SWAP1 POP DUP1 PUSH1 0x2 ADD PUSH1 0x14 SWAP1 SLOAD SWAP1 PUSH2 0x100 EXP SWAP1 DIV PUSH1 0xFF AND ISZERO PUSH2 0x2C3 JUMPI PUSH1 0x0 DUP1 REVERT JUMPDEST PUSH1 0x2 PUSH1 0x1 SLOAD PUSH2 0x2D2 SWAP2 SWAP1 PUSH2 0xCF8 JUMP JUMPDEST DUP2 PUSH1 0x4 ADD SLOAD GT PUSH2 0x2E1 JUMPI PUSH1 0x0 DUP1 REVERT JUMPDEST DUP1 PUSH1 0x2 ADD PUSH1 0x0 SWAP1 SLOAD SWAP1 PUSH2 0x100 EXP SWAP1 DIV PUSH20 0xFFFFFFFFFFFFFFFFFFFFFFFFFFFFFFFFFFFFFFFF AND PUSH20 0xFFFFFFFFFFFFFFFFFFFFFFFFFFFFFFFFFFFFFFFF AND PUSH2 0x8FC DUP3 PUSH1 0x1 ADD SLOAD SWAP1 DUP2 ISZERO MUL SWAP1 PUSH1 0x40 MLOAD PUSH1 0x0 PUSH1 0x40 MLOAD DUP1 DUP4 SUB DUP2 DUP6 DUP9 DUP9 CALL SWAP4 POP POP POP POP ISZERO DUP1 ISZERO PUSH2 0x34F JUMPI RETURNDATASIZE PUSH1 0x0 DUP1 RETURNDATACOPY RETURNDATASIZE PUSH1 0x0 REVERT JUMPDEST POP PUSH1 0x1 DUP2 PUSH1 0x2 ADD PUSH1 0x14 PUSH2 0x100 EXP DUP2 SLOAD DUP2 PUSH1 0xFF MUL NOT AND SWAP1 DUP4 ISZERO ISZERO MUL OR SWAP1 SSTORE POP POP POP JUMP JUMPDEST PUSH1 0x2 PUSH1 0x20 MSTORE DUP1 PUSH1 0x0 MSTORE PUSH1 0x40 PUSH1 0x0 KECCAK256 PUSH1 0x0 SWAP2 POP SLOAD SWAP1 PUSH2 0x100 EXP SWAP1 DIV PUSH1 0xFF AND DUP2 JUMP JUMPDEST PUSH1 0x0 DUP1 SLOAD SWAP1 PUSH2 0x100 EXP SWAP1 DIV PUSH20 0xFFFFFFFFFFFFFFFFFFFFFFFFFFFFFFFFFFFFFFFF AND DUP2 JUMP JUMPDEST PUSH1 0x1 SLOAD DUP2 JUMP JUMPDEST PUSH1 0x5 PUSH1 0x20 MSTORE DUP1 PUSH1 0x0 MSTORE PUSH1 0x40 PUSH1 0x0 KECCAK256 PUSH1 0x0 SWAP2 POP SWAP1 POP DUP1 PUSH1 0x0 ADD DUP1 SLOAD PUSH2 0x3DE SWAP1 PUSH2 0xD58 JUMP JUMPDEST DUP1 PUSH1 0x1F ADD PUSH1 0x20 DUP1 SWAP2 DIV MUL PUSH1 0x20 ADD PUSH1 0x40 MLOAD SWAP1 DUP2 ADD PUSH1 0x40 MSTORE DUP1 SWAP3 SWAP2 SWAP1 DUP2 DUP2 MSTORE PUSH1 0x20 ADD DUP3 DUP1 SLOAD PUSH2 0x40A SWAP1 PUSH2 0xD58 JUMP JUMPDEST DUP1 ISZERO PUSH2 0x457 JUMPI DUP1 PUSH1 0x1F LT PUSH2 0x42C JUMPI PUSH2 0x100 DUP1 DUP4 SLOAD DIV MUL DUP4 MSTORE SWAP2 PUSH1 0x20 ADD SWAP2 PUSH2 0x457 JUMP JUMPDEST DUP3 ADD SWAP2 SWAP1 PUSH1 0x0 MSTORE PUSH1 0x20 PUSH1 0x0 KECCAK256 SWAP1 JUMPDEST DUP2 SLOAD DUP2 MSTORE SWAP1 PUSH1 0x1 ADD SWAP1 PUSH1 0x20 ADD DUP1 DUP4 GT PUSH2 0x43A JUMPI DUP3 SWAP1 SUB PUSH1 0x1F AND DUP3 ADD SWAP2 JUMPDEST POP POP POP POP POP SWAP1 DUP1 PUSH1 0x1 ADD SLOAD SWAP1 DUP1 PUSH1 0x2 ADD PUSH1 0x0 SWAP1 SLOAD SWAP1 PUSH2 0x100 EXP SWAP1 DIV PUSH20 0xFFFFFFFFFFFFFFFFFFFFFFFFFFFFFFFFFFFFFFFF AND SWAP1 DUP1 PUSH1 0x2 ADD PUSH1 0x14 SWAP1 SLOAD SWAP1 PUSH2 0x100 EXP SWAP1 DIV PUSH1 0xFF AND SWAP1 DUP1 PUSH1 0x4 ADD SLOAD SWAP1 POP DUP6 JUMP JUMPDEST PUSH1 0x0 DUP1 SLOAD SWAP1 PUSH2 0x100 EXP SWAP1 DIV PUSH20 0xFFFFFFFFFFFFFFFFFFFFFFFFFFFFFFFFFFFFFFFF AND PUSH20 0xFFFFFFFFFFFFFFFFFFFFFFFFFFFFFFFFFFFFFFFF AND CALLER PUSH20 0xFFFFFFFFFFFFFFFFFFFFFFFFFFFFFFFFFFFFFFFF AND EQ PUSH2 0x4FE JUMPI PUSH1 0x0 DUP1 REVERT JUMPDEST PUSH1 0x0 PUSH1 0x5 PUSH1 0x0 PUSH1 0x4 PUSH1 0x0 DUP2 SLOAD DUP1 SWAP3 SWAP2 SWAP1 PUSH2 0x517 SWAP1 PUSH2 0xD8A JUMP JUMPDEST SWAP2 SWAP1 POP SSTORE DUP2 MSTORE PUSH1 0x20 ADD SWAP1 DUP2 MSTORE PUSH1 0x20 ADD PUSH1 0x0 KECCAK256 SWAP1 POP DUP4 DUP2 PUSH1 0x0 ADD SWAP1 DUP1 MLOAD SWAP1 PUSH1 0x20 ADD SWAP1 PUSH2 0x543 SWAP3 SWAP2 SWAP1 PUSH2 0x787 JUMP JUMPDEST POP DUP3 DUP2 PUSH1 0x1 ADD DUP2 SWAP1 SSTORE POP DUP2 DUP2 PUSH1 0x2 ADD PUSH1 0x0 PUSH2 0x100 EXP DUP2 SLOAD DUP2 PUSH20 0xFFFFFFFFFFFFFFFFFFFFFFFFFFFFFFFFFFFFFFFF MUL NOT AND SWAP1 DUP4 PUSH20 0xFFFFFFFFFFFFFFFFFFFFFFFFFFFFFFFFFFFFFFFF AND MUL OR SWAP1 SSTORE POP PUSH1 0x0 DUP2 PUSH1 0x2 ADD PUSH1 0x14 PUSH2 0x100 EXP DUP2 SLOAD DUP2 PUSH1 0xFF MUL NOT AND SWAP1 DUP4 ISZERO ISZERO MUL OR SWAP1 SSTORE POP PUSH1 0x0 DUP2 PUSH1 0x4 ADD DUP2 SWAP1 SSTORE POP POP POP POP POP JUMP JUMPDEST PUSH1 0x3 SLOAD DUP2 JUMP JUMPDEST PUSH1 0x4 SLOAD DUP2 JUMP JUMPDEST PUSH1 0x3 SLOAD CALLVALUE GT PUSH2 0x5D7 JUMPI PUSH1 0x0 DUP1 REVERT JUMPDEST PUSH1 0x1 PUSH1 0x2 PUSH1 0x0 CALLER PUSH20 0xFFFFFFFFFFFFFFFFFFFFFFFFFFFFFFFFFFFFFFFF AND PUSH20 0xFFFFFFFFFFFFFFFFFFFFFFFFFFFFFFFFFFFFFFFF AND DUP2 MSTORE PUSH1 0x20 ADD SWAP1 DUP2 MSTORE PUSH1 0x20 ADD PUSH1 0x0 KECCAK256 PUSH1 0x0 PUSH2 0x100 EXP DUP2 SLOAD DUP2 PUSH1 0xFF MUL NOT AND SWAP1 DUP4 ISZERO ISZERO MUL OR SWAP1 SSTORE POP PUSH1 0x4 PUSH1 0x0 DUP2 SLOAD DUP1 SWAP3 SWAP2 SWAP1 PUSH2 0x642 SWAP1 PUSH2 0xD8A JUMP JUMPDEST SWAP2 SWAP1 POP SSTORE POP JUMP JUMPDEST PUSH1 0x0 PUSH1 0x5 PUSH1 0x0 DUP4 DUP2 MSTORE PUSH1 0x20 ADD SWAP1 DUP2 MSTORE PUSH1 0x20 ADD PUSH1 0x0 KECCAK256 SWAP1 POP PUSH1 0x2 PUSH1 0x0 CALLER PUSH20 0xFFFFFFFFFFFFFFFFFFFFFFFFFFFFFFFFFFFFFFFF AND PUSH20 0xFFFFFFFFFFFFFFFFFFFFFFFFFFFFFFFFFFFFFFFF AND DUP2 MSTORE PUSH1 0x20 ADD SWAP1 DUP2 MSTORE PUSH1 0x20 ADD PUSH1 0x0 KECCAK256 PUSH1 0x0 SWAP1 SLOAD SWAP1 PUSH2 0x100 EXP SWAP1 DIV PUSH1 0xFF AND PUSH2 0x6B6 JUMPI PUSH1 0x0 DUP1 REVERT JUMPDEST DUP1 PUSH1 0x3 ADD PUSH1 0x0 CALLER PUSH20 0xFFFFFFFFFFFFFFFFFFFFFFFFFFFFFFFFFFFFFFFF AND PUSH20 0xFFFFFFFFFFFFFFFFFFFFFFFFFFFFFFFFFFFFFFFF AND DUP2 MSTORE PUSH1 0x20 ADD SWAP1 DUP2 MSTORE PUSH1 0x20 ADD PUSH1 0x0 KECCAK256 PUSH1 0x0 SWAP1 SLOAD SWAP1 PUSH2 0x100 EXP SWAP1 DIV PUSH1 0xFF AND ISZERO PUSH2 0x70F JUMPI PUSH1 0x0 DUP1 REVERT JUMPDEST DUP1 PUSH1 0x4 ADD PUSH1 0x0 DUP2 SLOAD DUP1 SWAP3 SWAP2 SWAP1 PUSH2 0x724 SWAP1 PUSH2 0xD8A JUMP JUMPDEST SWAP2 SWAP1 POP SSTORE POP PUSH1 0x1 DUP2 PUSH1 0x3 ADD PUSH1 0x0 CALLER PUSH20 0xFFFFFFFFFFFFFFFFFFFFFFFFFFFFFFFFFFFFFFFF AND PUSH20 0xFFFFFFFFFFFFFFFFFFFFFFFFFFFFFFFFFFFFFFFF AND DUP2 MSTORE PUSH1 0x20 ADD SWAP1 DUP2 MSTORE PUSH1 0x20 ADD PUSH1 0x0 KECCAK256 PUSH1 0x0 PUSH2 0x100 EXP DUP2 SLOAD DUP2 PUSH1 0xFF MUL NOT AND SWAP1 DUP4 ISZERO ISZERO MUL OR SWAP1 SSTORE POP POP POP JUMP JUMPDEST DUP3 DUP1 SLOAD PUSH2 0x793 SWAP1 PUSH2 0xD58 JUMP JUMPDEST SWAP1 PUSH1 0x0 MSTORE PUSH1 0x20 PUSH1 0x0 KECCAK256 SWAP1 PUSH1 0x1F ADD PUSH1 0x20 SWAP1 DIV DUP2 ADD SWAP3 DUP3 PUSH2 0x7B5 JUMPI PUSH1 0x0 DUP6 SSTORE PUSH2 0x7FC JUMP JUMPDEST DUP3 PUSH1 0x1F LT PUSH2 0x7CE JUMPI DUP1 MLOAD PUSH1 0xFF NOT AND DUP4 DUP1 ADD OR DUP6 SSTORE PUSH2 0x7FC JUMP JUMPDEST DUP3 DUP1 ADD PUSH1 0x1 ADD DUP6 SSTORE DUP3 ISZERO PUSH2 0x7FC JUMPI SWAP2 DUP3 ADD JUMPDEST DUP3 DUP2 GT ISZERO PUSH2 0x7FB JUMPI DUP3 MLOAD DUP3 SSTORE SWAP2 PUSH1 0x20 ADD SWAP2 SWAP1 PUSH1 0x1 ADD SWAP1 PUSH2 0x7E0 JUMP JUMPDEST JUMPDEST POP SWAP1 POP PUSH2 0x809 SWAP2 SWAP1 PUSH2 0x80D JUMP JUMPDEST POP SWAP1 JUMP JUMPDEST JUMPDEST DUP1 DUP3 GT ISZERO PUSH2 0x826 JUMPI PUSH1 0x0 DUP2 PUSH1 0x0 SWAP1 SSTORE POP PUSH1 0x1 ADD PUSH2 0x80E JUMP JUMPDEST POP SWAP1 JUMP JUMPDEST PUSH1 0x0 PUSH1 0x40 MLOAD SWAP1 POP SWAP1 JUMP JUMPDEST PUSH1 0x0 DUP1 REVERT JUMPDEST PUSH1 0x0 DUP1 REVERT JUMPDEST PUSH1 0x0 DUP2 SWAP1 POP SWAP2 SWAP1 POP JUMP JUMPDEST PUSH2 0x851 DUP2 PUSH2 0x83E JUMP JUMPDEST DUP2 EQ PUSH2 0x85C JUMPI PUSH1 0x0 DUP1 REVERT JUMPDEST POP JUMP JUMPDEST PUSH1 0x0 DUP2 CALLDATALOAD SWAP1 POP PUSH2 0x86E DUP2 PUSH2 0x848 JUMP JUMPDEST SWAP3 SWAP2 POP POP JUMP JUMPDEST PUSH1 0x0 PUSH1 0x20 DUP3 DUP5 SUB SLT ISZERO PUSH2 0x88A JUMPI PUSH2 0x889 PUSH2 0x834 JUMP JUMPDEST JUMPDEST PUSH1 0x0 PUSH2 0x898 DUP5 DUP3 DUP6 ADD PUSH2 0x85F JUMP JUMPDEST SWAP2 POP POP SWAP3 SWAP2 POP POP JUMP JUMPDEST PUSH1 0x0 PUSH20 0xFFFFFFFFFFFFFFFFFFFFFFFFFFFFFFFFFFFFFFFF DUP3 AND SWAP1 POP SWAP2 SWAP1 POP JUMP JUMPDEST PUSH1 0x0 PUSH2 0x8CC DUP3 PUSH2 0x8A1 JUMP JUMPDEST SWAP1 POP SWAP2 SWAP1 POP JUMP JUMPDEST PUSH2 0x8DC DUP2 PUSH2 0x8C1 JUMP JUMPDEST DUP2 EQ PUSH2 0x8E7 JUMPI PUSH1 0x0 DUP1 REVERT JUMPDEST POP JUMP JUMPDEST PUSH1 0x0 DUP2 CALLDATALOAD SWAP1 POP PUSH2 0x8F9 DUP2 PUSH2 0x8D3 JUMP JUMPDEST SWAP3 SWAP2 POP POP JUMP JUMPDEST PUSH1 0x0 PUSH1 0x20 DUP3 DUP5 SUB SLT ISZERO PUSH2 0x915 JUMPI PUSH2 0x914 PUSH2 0x834 JUMP JUMPDEST JUMPDEST PUSH1 0x0 PUSH2 0x923 DUP5 DUP3 DUP6 ADD PUSH2 0x8EA JUMP JUMPDEST SWAP2 POP POP SWAP3 SWAP2 POP POP JUMP JUMPDEST PUSH1 0x0 DUP2 ISZERO ISZERO SWAP1 POP SWAP2 SWAP1 POP JUMP JUMPDEST PUSH2 0x941 DUP2 PUSH2 0x92C JUMP JUMPDEST DUP3 MSTORE POP POP JUMP JUMPDEST PUSH1 0x0 PUSH1 0x20 DUP3 ADD SWAP1 POP PUSH2 0x95C PUSH1 0x0 DUP4 ADD DUP5 PUSH2 0x938 JUMP JUMPDEST SWAP3 SWAP2 POP POP JUMP JUMPDEST PUSH2 0x96B DUP2 PUSH2 0x8C1 JUMP JUMPDEST DUP3 MSTORE POP POP JUMP JUMPDEST PUSH1 0x0 PUSH1 0x20 DUP3 ADD SWAP1 POP PUSH2 0x986 PUSH1 0x0 DUP4 ADD DUP5 PUSH2 0x962 JUMP JUMPDEST SWAP3 SWAP2 POP POP JUMP JUMPDEST PUSH2 0x995 DUP2 PUSH2 0x83E JUMP JUMPDEST DUP3 MSTORE POP POP JUMP JUMPDEST PUSH1 0x0 PUSH1 0x20 DUP3 ADD SWAP1 POP PUSH2 0x9B0 PUSH1 0x0 DUP4 ADD DUP5 PUSH2 0x98C JUMP JUMPDEST SWAP3 SWAP2 POP POP JUMP JUMPDEST PUSH1 0x0 DUP2 MLOAD SWAP1 POP SWAP2 SWAP1 POP JUMP JUMPDEST PUSH1 0x0 DUP3 DUP3 MSTORE PUSH1 0x20 DUP3 ADD SWAP1 POP SWAP3 SWAP2 POP POP JUMP JUMPDEST PUSH1 0x0 JUMPDEST DUP4 DUP2 LT ISZERO PUSH2 0x9F0 JUMPI DUP1 DUP3 ADD MLOAD DUP2 DUP5 ADD MSTORE PUSH1 0x20 DUP2 ADD SWAP1 POP PUSH2 0x9D5 JUMP JUMPDEST DUP4 DUP2 GT ISZERO PUSH2 0x9FF JUMPI PUSH1 0x0 DUP5 DUP5 ADD MSTORE JUMPDEST POP POP POP POP JUMP JUMPDEST PUSH1 0x0 PUSH1 0x1F NOT PUSH1 0x1F DUP4 ADD AND SWAP1 POP SWAP2 SWAP1 POP JUMP JUMPDEST PUSH1 0x0 PUSH2 0xA21 DUP3 PUSH2 0x9B6 JUMP JUMPDEST PUSH2 0xA2B DUP2 DUP6 PUSH2 0x9C1 JUMP JUMPDEST SWAP4 POP PUSH2 0xA3B DUP2 DUP6 PUSH1 0x20 DUP7 ADD PUSH2 0x9D2 JUMP JUMPDEST PUSH2 0xA44 DUP2 PUSH2 0xA05 JUMP JUMPDEST DUP5 ADD SWAP2 POP POP SWAP3 SWAP2 POP POP JUMP JUMPDEST PUSH1 0x0 PUSH2 0xA5A DUP3 PUSH2 0x8A1 JUMP JUMPDEST SWAP1 POP SWAP2 SWAP1 POP JUMP JUMPDEST PUSH2 0xA6A DUP2 PUSH2 0xA4F JUMP JUMPDEST DUP3 MSTORE POP POP JUMP JUMPDEST PUSH1 0x0 PUSH1 0xA0 DUP3 ADD SWAP1 POP DUP2 DUP2 SUB PUSH1 0x0 DUP4 ADD MSTORE PUSH2 0xA8A DUP2 DUP9 PUSH2 0xA16 JUMP JUMPDEST SWAP1 POP PUSH2 0xA99 PUSH1 0x20 DUP4 ADD DUP8 PUSH2 0x98C JUMP JUMPDEST PUSH2 0xAA6 PUSH1 0x40 DUP4 ADD DUP7 PUSH2 0xA61 JUMP JUMPDEST PUSH2 0xAB3 PUSH1 0x60 DUP4 ADD DUP6 PUSH2 0x938 JUMP JUMPDEST PUSH2 0xAC0 PUSH1 0x80 DUP4 ADD DUP5 PUSH2 0x98C JUMP JUMPDEST SWAP7 SWAP6 POP POP POP POP POP POP JUMP JUMPDEST PUSH1 0x0 DUP1 REVERT JUMPDEST PUSH1 0x0 DUP1 REVERT JUMPDEST PUSH32 0x4E487B7100000000000000000000000000000000000000000000000000000000 PUSH1 0x0 MSTORE PUSH1 0x41 PUSH1 0x4 MSTORE PUSH1 0x24 PUSH1 0x0 REVERT JUMPDEST PUSH2 0xB0C DUP3 PUSH2 0xA05 JUMP JUMPDEST DUP2 ADD DUP2 DUP2 LT PUSH8 0xFFFFFFFFFFFFFFFF DUP3 GT OR ISZERO PUSH2 0xB2B JUMPI PUSH2 0xB2A PUSH2 0xAD4 JUMP JUMPDEST JUMPDEST DUP1 PUSH1 0x40 MSTORE POP POP POP JUMP JUMPDEST PUSH1 0x0 PUSH2 0xB3E PUSH2 0x82A JUMP JUMPDEST SWAP1 POP PUSH2 0xB4A DUP3 DUP3 PUSH2 0xB03 JUMP JUMPDEST SWAP2 SWAP1 POP JUMP JUMPDEST PUSH1 0x0 PUSH8 0xFFFFFFFFFFFFFFFF DUP3 GT ISZERO PUSH2 0xB6A JUMPI PUSH2 0xB69 PUSH2 0xAD4 JUMP JUMPDEST JUMPDEST PUSH2 0xB73 DUP3 PUSH2 0xA05 JUMP JUMPDEST SWAP1 POP PUSH1 0x20 DUP2 ADD SWAP1 POP SWAP2 SWAP1 POP JUMP JUMPDEST DUP3 DUP2 DUP4 CALLDATACOPY PUSH1 0x0 DUP4 DUP4 ADD MSTORE POP POP POP JUMP JUMPDEST PUSH1 0x0 PUSH2 0xBA2 PUSH2 0xB9D DUP5 PUSH2 0xB4F JUMP JUMPDEST PUSH2 0xB34 JUMP JUMPDEST SWAP1 POP DUP3 DUP2 MSTORE PUSH1 0x20 DUP2 ADD DUP5 DUP5 DUP5 ADD GT ISZERO PUSH2 0xBBE JUMPI PUSH2 0xBBD PUSH2 0xACF JUMP JUMPDEST JUMPDEST PUSH2 0xBC9 DUP5 DUP3 DUP6 PUSH2 0xB80 JUMP JUMPDEST POP SWAP4 SWAP3 POP POP POP JUMP JUMPDEST PUSH1 0x0 DUP3 PUSH1 0x1F DUP4 ADD SLT PUSH2 0xBE6 JUMPI PUSH2 0xBE5 PUSH2 0xACA JUMP JUMPDEST JUMPDEST DUP2 CALLDATALOAD PUSH2 0xBF6 DUP5 DUP3 PUSH1 0x20 DUP7 ADD PUSH2 0xB8F JUMP JUMPDEST SWAP2 POP POP SWAP3 SWAP2 POP POP JUMP JUMPDEST PUSH2 0xC08 DUP2 PUSH2 0xA4F JUMP JUMPDEST DUP2 EQ PUSH2 0xC13 JUMPI PUSH1 0x0 DUP1 REVERT JUMPDEST POP JUMP JUMPDEST PUSH1 0x0 DUP2 CALLDATALOAD SWAP1 POP PUSH2 0xC25 DUP2 PUSH2 0xBFF JUMP JUMPDEST SWAP3 SWAP2 POP POP JUMP JUMPDEST PUSH1 0x0 DUP1 PUSH1 0x0 PUSH1 0x60 DUP5 DUP7 SUB SLT ISZERO PUSH2 0xC44 JUMPI PUSH2 0xC43 PUSH2 0x834 JUMP JUMPDEST JUMPDEST PUSH1 0x0 DUP5 ADD CALLDATALOAD PUSH8 0xFFFFFFFFFFFFFFFF DUP2 GT ISZERO PUSH2 0xC62 JUMPI PUSH2 0xC61 PUSH2 0x839 JUMP JUMPDEST JUMPDEST PUSH2 0xC6E DUP7 DUP3 DUP8 ADD PUSH2 0xBD1 JUMP JUMPDEST SWAP4 POP POP PUSH1 0x20 PUSH2 0xC7F DUP7 DUP3 DUP8 ADD PUSH2 0x85F JUMP JUMPDEST SWAP3 POP POP PUSH1 0x40 PUSH2 0xC90 DUP7 DUP3 DUP8 ADD PUSH2 0xC16 JUMP JUMPDEST SWAP2 POP POP SWAP3 POP SWAP3 POP SWAP3 JUMP JUMPDEST PUSH32 0x4E487B7100000000000000000000000000000000000000000000000000000000 PUSH1 0x0 MSTORE PUSH1 0x12 PUSH1 0x4 MSTORE PUSH1 0x24 PUSH1 0x0 REVERT JUMPDEST PUSH32 0x4E487B7100000000000000000000000000000000000000000000000000000000 PUSH1 0x0 MSTORE PUSH1 0x11 PUSH1 0x4 MSTORE PUSH1 0x24 PUSH1 0x0 REVERT JUMPDEST PUSH1 0x0 PUSH2 0xD03 DUP3 PUSH2 0x83E JUMP JUMPDEST SWAP2 POP PUSH2 0xD0E DUP4 PUSH2 0x83E JUMP JUMPDEST SWAP3 POP DUP3 PUSH2 0xD1E JUMPI PUSH2 0xD1D PUSH2 0xC9A JUMP JUMPDEST JUMPDEST DUP3 DUP3 DIV SWAP1 POP SWAP3 SWAP2 POP POP JUMP JUMPDEST PUSH32 0x4E487B7100000000000000000000000000000000000000000000000000000000 PUSH1 0x0 MSTORE PUSH1 0x22 PUSH1 0x4 MSTORE PUSH1 0x24 PUSH1 0x0 REVERT JUMPDEST PUSH1 0x0 PUSH1 0x2 DUP3 DIV SWAP1 POP PUSH1 0x1 DUP3 AND DUP1 PUSH2 0xD70 JUMPI PUSH1 0x7F DUP3 AND SWAP2 POP JUMPDEST PUSH1 0x20 DUP3 LT DUP2 EQ ISZERO PUSH2 0xD84 JUMPI PUSH2 0xD83 PUSH2 0xD29 JUMP JUMPDEST JUMPDEST POP SWAP2 SWAP1 POP JUMP JUMPDEST PUSH1 0x0 PUSH2 0xD95 DUP3 PUSH2 0x83E JUMP JUMPDEST SWAP2 POP PUSH32 0xFFFFFFFFFFFFFFFFFFFFFFFFFFFFFFFFFFFFFFFFFFFFFFFFFFFFFFFFFFFFFFFF DUP3 EQ ISZERO PUSH2 0xDC8 JUMPI PUSH2 0xDC7 PUSH2 0xCC9 JUMP JUMPDEST JUMPDEST PUSH1 0x1 DUP3 ADD SWAP1 POP SWAP2 SWAP1 POP JUMP INVALID LOG2 PUSH5 0x6970667358 0x22 SLT KECCAK256 SSTORE 0x24 SGT RETURNDATACOPY CALLDATASIZE EXTCODESIZE SHL 0xCA 0xA8 0xE0 PUSH17 0x471B5225CE0E33CA53F7B9FEC572AB4A95 RETURN CALL 0xB8 STOP PUSH5 0x736F6C6343 STOP ADDMOD MULMOD STOP CALLER "},"gasEstimates":{"creation":{"codeDepositCost":"718600","executionCost":"infinite","totalCost":"infinite"},"external":{"approveRequest(uint256)":"infinite","approvers(address)":"2868","contribute()":"51024","createRequest(string,uint256,address)":"infinite","finalizeRequest(uint256)":"infinite","manager()":"2556","minimumContribution()":"2451","numApprovers()":"2496","numRequests()":"2473","requests(uint256)":"infinite"}},"methodIdentifiers":{"approveRequest(uint256)":"d7d1bbdb","approvers(address)":"0a144391","contribute()":"d7bb99ba","createRequest(string,uint256,address)":"8a9cfd55","finalizeRequest(uint256)":"03441006","manager()":"481c6a75","minimumContribution()":"937e09b1","numApprovers()":"6345cb08","numRequests()":"9fb42b1f","requests(uint256)":"81d12c58"}},"storageLayout":{"storage":[{"astId":56,"contract":"Campaign.sol:Campaign","label":"manager","offset":0,"slot":"0","type":"t_address"},{"astId":58,"contract":"Campaign.sol:Campaign","label":"numApprovers","offset":0,"slot":"1","type":"t_uint256"},{"astId":62,"contract":"Campaign.sol:Campaign","label":"approvers","offset":0,"slot":"2","type":"t_mapping(t_address,t_bool)"},{"astId":64,"contract":"Campaign.sol:Campaign","label":"minimumContribution","offset":0,"slot":"3","type":"t_uint256"},{"astId":66,"contract":"Campaign.sol:Campaign","label":"numRequests","offset":0,"slot":"4","type":"t_uint256"},{"astId":71,"contract":"Campaign.sol:Campaign","label":"requests","offset":0,"slot":"5","type":"t_mapping(t_uint256,t_struct(Request)54_storage)"}],"types":{"t_address":{"encoding":"inplace","label":"address","numberOfBytes":"20"},"t_address_payable":{"encoding":"inplace","label":"address payable","numberOfBytes":"20"},"t_bool":{"encoding":"inplace","label":"bool","numberOfBytes":"1"},"t_mapping(t_address,t_bool)":{"encoding":"mapping","key":"t_address","label":"mapping(address => bool)","numberOfBytes":"32","value":"t_bool"},"t_mapping(t_uint256,t_struct(Request)54_storage)":{"encoding":"mapping","key":"t_uint256","label":"mapping(uint256 => struct Campaign.Request)","numberOfBytes":"32","value":"t_struct(Request)54_storage"},"t_string_storage":{"encoding":"bytes","label":"string","numberOfBytes":"32"},"t_struct(Request)54_storage":{"encoding":"inplace","label":"struct Campaign.Request","members":[{"astId":41,"contract":"Campaign.sol:Campaign","label":"description","offset":0,"slot":"0","type":"t_string_storage"},{"astId":43,"contract":"Campaign.sol:Campaign","label":"value","offset":0,"slot":"1","type":"t_uint256"},{"astId":45,"contract":"Campaign.sol:Campaign","label":"recipient","offset":0,"slot":"2","type":"t_address_payable"},{"astId":47,"contract":"Campaign.sol:Campaign","label":"complete","offset":20,"slot":"2","type":"t_bool"},{"astId":51,"contract":"Campaign.sol:Campaign","label":"approvals","offset":0,"slot":"3","type":"t_mapping(t_address,t_bool)"},{"astId":53,"contract":"Campaign.sol:Campaign","label":"approvalCount","offset":0,"slot":"4","type":"t_uint256"}],"numberOfBytes":"160"},"t_uint256":{"encoding":"inplace","label":"uint256","numberOfBytes":"32"}}},"userdoc":{"kind":"user","methods":{},"version":1}}